:1000000002000375814312011BE582600302006F49
:10001000780079007A007B007C007D00EC4D601C4C
:1000200088828983E493A3A882A9838A828B83F040
:10003000A3AA82AB831CBCFFE31D80E07582007520
:1000400083007C007D00EC4D600AE4F0A31CBCFF43
:10005000F51D80F27582007583007C007D00EC4DFB
:10006000600AE4F0A31CBCFFF51D80F212011A1215
:10007000029A80FE1B5B324A004144432074657340
:10008000742070726F6772616D0A46696C653A2000
:1000900025730A436F6D70696C65643A2025732C73
:1000A0002025730A0A00443A5C436F64696E675CFA
:1000B000323032365C3239315C6C6162355C4546D7
:1000C0004D385F4144432E63004D61722020312042
:1000D000323032360031393A30393A343500564010
:1000E00050322E323D25372E3566562C2056405044
:1000F000322E333D25372E3566562C205640503251
:100100002E343D25372E3566562C20564050322E43
:10011000353D25372E3566560D002275A70075979B
:10012000DE7597AD75FF8075EF0675A71075C12058
:1001300075A70075A90075A900E5A930E7FB75A9A9
:100140000375A903E5A930E7FB43A41075E1017528
:10015000E20075E340759810758DE6858D8B5389A7
:100160000F438920D28ED2997582002275A700C2D2
:10017000EF75B28075BC2075B91E75E80075DF3F5C
:1001800075B300D2EF22AA82438E407592B8759360
:10019000FF8592948593957591047B00C3EB9A50EB
:1001A0000BE59130E7FB53917F0B80F075910022B6
:1001B000AA82AB837C007D00C3EC9AED9B502B7E22
:1001C00000BE0400501D7582FAC002C003C004C006
:1001D00005C006120186D006D005D004D003D00297
:1001E0000E80DE0CBC00D10D80CE22AA82851AF0D2
:1001F00005F07401800225E0D5F0FBFB75A720BA5D
:100200000002800ABA0102800FBA021E8014EBF4C9
:10021000FA52F1EB42D48012EBF4FA52F2EB42D5EF
:100220008008EBF4FA52F3EB42CC75A700228582EA
:10023000BBC2EDD2EC30EDFD85BD8285BE832212BE
:10024000022E1203A7AA82AB83ACF0FDC002C0034A
:10025000C004C005906C8B75F05374401203B3AAB0
:1002600082AB83ACF0FDE58124FCF581E4C0E07451
:10027000FCC0E0747FC0E07446C0E08A828B838C4F
:10028000F0ED12048CAA82AB83ACF0FDE58124FC76
:10029000F5818A828B838CF0ED229001F41201B0FB
:1002A0007474C0E07400C0E07480C0E012046B1588
:1002B000811581158174D5C0E07400C0E07480C0E0
:1002C000E074C9C0E07400C0E07480C0E074A6C0EF
:1002D000E07400C0E07480C0E07479C0E07400C0D5
:1002E000E07480C0E012046BE58124F4F581751A96
:1002F000027582021201EB751A037582021201EB7C
:10030000751A047582021201EB751A0575820212C4
:1003100001EB12016C75820F12023FAA82AB83AC13
:10032000F0FD8A098B0A8C0B8D0C75821012023F2E
:10033000AA82AB83ACF0FD8A0D8B0E8C0F8D1075ED
:10034000821112023FAA82AB83ACF0FD8A118B129C
:100350008C138D1475821212023FAA82AB83ACF00B
:10036000FD8A158B168C178D18C002C003C004C0FF
:1003700005C011C012C013C014C00DC00EC00FC004
:1003800010C009C00AC00BC00C74DEC0E07400C00D
:10039000E07480C0E012046BE58124EDF5819001EA
:1003A000F41201B0020315E4AC83AB82FAF9748E47
:1003B0000205B4120640BC00030205DFEF60FA300C
:1003C000D502B2D1E583B4FF030205F5E582B4FF9F
:1003D000030205F5258340072482400B0205DF2434
:1003E000831450030205F5F582EA8DF0A4A8F0EA23
:1003F0008EF0A428F8E435F0F9EB8DF0A428E93567
:10040000F0F9E433CA8FF0A429F9EA35F0FAEBF8F1
:100410008EF0A429F9EA35F0FAE433FBEC8DF0A470
:1004200029F9EA35F0FAE43BFBE88FF0A42AFAEB6D
:1004300035F0FBE433CCFD8EF0A42AFAEB35F0FB6B
:10044000E43CFCED8FF0A42BFBEC35F0FC20E70343
:1004500012060D0205BE020FFA85823085833185B2
:10046000F032851933900456020A4DC00885810880
:10047000E50824FBF533E50824FBF88630088631CF
:10048000088632900456120A4DD0082212064030D7
:10049000D502B2D1BF0009BC00030206020205F575
:1004A000BC00030205DFE583B4FF0BE582B4FF0364
:1004B0000206020205DFE582B4FF030205F5C395DB
:1004C000835007247F400B0205DF24801450030271
:1004D00005F5C0E0E4CCCBCAF98D1A8E1B8F1CEF5A
:1004E00054F0C4F51D758306851DF0EB84F582E993
:1004F000C4F9EAC4FAEBC4FBEC540FC47803D6FC8D
:1005000018EBD6FB18EAD6FA8582F0EDA4A8F0FD28
:100510008582F0EEA428FEE435F0F88582F0EFA4A1
:1005200028FFE435F0F8E99DF9EA9EFAEB9FFBEC31
:1005300098FCAD1AAE1BAF1C30E7101582E92DF9FF
:10054000EA3EFAEB3FFBE43CFC80EDC082D58398A9
:10055000C3E933F9EA33FAEB33FBEC33FCC3E99D2F
:10056000EA9EEB9FEC9400B3E413F9D002D0E0C410
:100570004AFAD003D0E0C44BFBD004D0E0F5F054ED
:100580000FC44CFCD082158230F40FD3EC13FCEB7B
:1005900013FBEA13FAE913F90582E930E70A74015B
:1005A0002AFAE43BFBE43CFC0205D6FCABF0AA8350
:1005B000A982749EC2D1F58212060D0205BEB980D1
:1005C00003EA13B34010EA2401FAE43BFBE43CFCE9
:1005D00050047C800582BC000EBB000BBA0008E40E
:1005E000F5F0F583F58222A2D1E582138CF092F723
:1005F0008B838A8222E4F583F58275F080F4A2D1A0
:100600001322E4F583F58275F0C0747F227804EC40
:100610007011E58224F8500AF582E4C9CACBFCD8EF
:10062000EF22EC7820058220E713D5820122C3E96E
:1006300033F9EA33FAEB33FBEC33FCD8EA158222C8
:10064000AA82AB83A2F73392D16002D2F7F582ACD3
:10065000F0E58124F9F8E6FD08E6FE0886F008E6F4
:10066000A2F73392D56002D2F7F583AFF022AA82C7
:10067000747FC0E07406C0E0C022C0238A822205D5
:1006800029E4B52902052A22AA8274302AFA24C64E
:10069000500A74072AFA3000034302208A820206B5
:1006A0006EE582FAC4540FF582C002120688D002A9
:1006B000740F5AF582020688AA24AB25AC26AD2712
:1006C000AE28752F20EE2EFEED235401FF4206EAE0
:1006D0002AFAEB33FBEC33FCED33FDC3EE952B40F4
:1006E00008EEC3952BFE430201D52FD98A248B2512
:1006F0008C268D278E28227840E624D075F00AA417
:10070000FA7841E624D02AFA783F8603BB2D04C349
:10071000E49AFA752B01C3E464808AF063F0809553
:10072000F05029752F038A0374F6252F401C052BE2
:10073000E52F142434F8E52F2434F98704A6047730
:100740002E1BEBFA6004052F80DE8B02EA30E70DEA
:10075000783586037836A6037835762E0AE52D603F
:100760000AE52D04FB252BF52B8005300B02052B0C
:1007700078348603E4BB2D0104FB700620060330A9
:100780000702052B30040302083E300557EB600CCE
:1007900075822DC00212066ED002801C30060C75C8
:1007A000822BC00212066ED002800D30070A7582BD
:1007B00020C00212066ED00278358604BC2E0C755D
:1007C0008230C00212066ED002152CAC2C152CC340
:1007D000E52B9C4003020882758230C00212066E2F
:1007E000D00280E7AC2C152CC3E52B9C500C7582F5
:1007F00020C00212066ED00280EA78348604BC2D36
:100800000C75822DC00212066ED002801C30060CC0
:1008100075822BC00212066ED002800D30070A7559
:100820008220C00212066ED00278358604BC2E5299
:10083000758230C00212066ED002152C8044EB6027
:100840000E75822DC00212066ED002152C8020304B
:10085000060E75822BC00212066ED002152C800F78
:1008600030070C758220C00212066ED002152C785B
:10087000358603BB2E0C758230C00212066ED00284
:10088000152C752F01C20DE52F2434F88603BB45C6
:100890000302093FBB2E348A03C3E464808BF063F8
:1008A000F08095F0500F758230C00312066ED003B1
:1008B0001B8B0280E48B02D20DE52D7038200B03D8
:1008C00002093F75822E12066E8074300D278A034E
:1008D000EB30E71FC3E46480852DF063F08095F072
:1008E000500C758230C00312066ED003152D0B8B91
:1008F0000280DD8B02300D0EC3E46480852DF06331
:10090000F08095F05021E52F2434F886038B82C0C7
:100910000212066ED002300D0EE52F2434F8860345
:10092000BB2E028002152D152CC3E46480852DF0AA
:1009300063F08095F04003200D05052F020887C362
:10094000E46480852DF063F08095F0500A75823064
:1009500012066E152D80E830040FAA2C152CEA60C3
:100960000875822012066E80F122E52D7003300B8F
:100970000D7407252DFAE52CC39AF52C8006E52C7D
:1009800024FAF52C752F0078348602BA2B0F200636
:100990000C78347620200705752F01052C200419CA
:1009A000AA2CC3E464808AF063F08095F0500A7545
:1009B000822012066E152C80E7C20DE52F2434F834
:1009C0008602BA00028069BA451F3000027665C30C
:1009D000E46480852DF063F08095F0500A758230D4
:1009E00012066E152D80E8D20DC3E52F9402E43374
:1009F000FA7014EA700EC3E46480852DF063F08011
:100A000095F04003300D16E52F2434F886028A82D3
:100A100012066EE52F24FD5012152D800E7402B5BE
:100A20002F09300B0675822E12066E052F0209BBA8
:100A3000300419AA2CC3E464808AF063F08095F036
:100A4000500A75822012066E152C80E722858222BC
:100A5000858323E4F529F52AAA30AB31AC328A82AA
:100A60008B838CF012100FFD74012AF530E43BF5F6
:100A7000318C32EDFA7003020FF3BA2502800302C3
:100A80000FEBC204C205C206C207C208C209C20AED
:100A9000C20BC201C202C203752B00752C00752D5A
:100AA000FFAB30AC31AD328B828C838DF012100FE6
:100AB000FAA3AB82AC838B308C318D32BA25078A96
:100AC0008212066E80928A06BE3000402E8A06EEA2
:100AD00024C6402774FFB52D13E52C75F00AA4FE3B
:100AE000EA24D02EF52C70BFD20580BBE52D75F021
:100AF0000AA4FEEA24D02EF52D80ACBA2E0A74FF8B
:100B0000B52DA4752D00809F8A06BE6100400E8A17
:100B100006EE248540075302DFD2008002C200BAED
:100B200020028075BA2303020BA8BA2A03020BAD78
:100B3000BA2B02805FBA2D028055BA4202805FBA9A
:100B40004303020BF2BA4403020D2DBA4503020D12
:100B500047BA4603020D43BA4703020D4BBA490395
:100B6000020D2DBA4C02803BBA4E03020D4FBA4F14
:100B700003020D34BA5003020CC6BA5303020C161A
:100B8000BA5503020D39BA5803020D3E020D79D24F
:100B900004020AA7D206020AA7D207020AA7D209AC
:100BA000020AA7D20A020AA7D20B020AA774FFB54B
:100BB0002D2030090BE53314F88833862C020AA760
:100BC000E53324FEF888338606088607188E2C0243
:100BD0000AA730090BE53314F88833862D020AA7DB
:100BE000E53324FEF888338606088607188E2D0222
:100BF0000AA730090AE53314F888338602800FE526
:100C00003324FEF888338603088604188B028A8210
:100C100012066E020D7EE53324FDF8883386030844
:100C2000860408860518188B248C258D268B828CCB
:100C3000838DF0121163AB82AC838B2E74FFB52DC4
:100C400003852E2D20041DC3E52E952C5016E52C72
:100C5000C3952EF52CAB2C152CEB60087582201259
:100C6000066E80F18524828525838526F012100F7B
:100C7000FBFA6029AB2D152DC3E464808BF063F083
:100C80008095F050188A8212066EAB24AC25AD26F2
:100C90000BBB00010C8B248C258D2680C720040300
:100CA000020D7EC3E52E952C4003020D7EE52CC37C
:100CB000952EF52CAB2C152CEB7003020D7E758256
:100CC0002012066E80EEE53324FDF8883386030893
:100CD000860408860518188B248C258D26E526FBAE
:100CE00030E7047A438013EB546060047A50800A42
:100CF000EB30E6047A4980027A588A82C0021206F2
:100D00006E75823A12066E75823012066E758278A2
:100D100012066ED002BA4902800BBA5002800685D4
:100D200025821206A18524821206A18051D208755F
:100D30002B0A804A752B088045752B0A8040752B3D
:100D400010803BD2018037D2028033D203802FE55E
:100D50003324FDF8883386030886040886051818AE
:100D60008B248C258D268B828C838DF0E5291211A6
:100D70004AA3E52A12114A80058A8212066E2001D2
:100D800006200203300370E53324FCF88833860321
:100D90000886040886050886061818188B248C25F2
:100DA0008D268E27E524E525E526E5278B828C8395
:100DB0008DF0EE12102B74FFB52D03752D06300348
:100DC00027747F5527FB8B28E528EB2BFB8B28E529
:100DD0002630E70674014528F528E52824684006F2
:100DE000749925284002D20230020612096A020ACA
:100DF000581206F7020A58E52B7003020A587B398D
:100E000030092BE53314F88833E6FC3395E0FDFE1A
:100E1000FF8C248D258E268F2720085EAC247D0034
:100E20007E007F008C248D258E268F27804C300AF3
:100E30001FE53324FCF888338604088605088606F7
:100E40000886071818188C248D258E268F27802A4F
:100E5000E53324FEF88833860408860518ED3395BB
:100E6000E0FEFF8C248D258E268F2720080CAC24D5
:100E7000AD257E007F008E268F27300B43E524456D
:100E8000254526452760397408B52B0C758230C07E
:100E90000312066ED00380287410B52B23758230A0
:100EA000C00312066ED00330000C758278C00312A6
:100EB000066ED003800A758258C00312066ED003F6
:100EC000300825AC24AD25AE26E527FF30E717C353
:100ED000E49CFCE49DFDE49EFEE49FFF8C248D25B4
:100EE0008E268F278002C208752E00D20C8B0075CB
:100EF0002800C0001206B8D000200C0DE528C4FC64
:100F0000E6FD4CF61888038002A628052EB20CE5F3
:100F10002445254526452770D68803E52C700375A2
:100F20002C0120051A200417E52E04FCC3952C5033
:100F30000E758220C00312066ED003152C80E93096
:100F4000080E75822DC00312066ED003152C802466
:100F5000E52E602030060E75822BC00312066ED07F
:100F600003152C800F30070C758220C00312066E0B
:100F7000D003152C20041EAC2C152CC3E52E9C5040
:100F8000273005047C3080027C208C82C00312064E
:100F90006ED00380E2C3E52E952C5009E52CC39555
:100FA0002EF52C8003752C008B00AB2E152EEB60DC
:100FB00022B20C200C0A08E6C4540FFB8B288007D1
:100FC0008603740F5BF528852882C000120688D03E
:100FD0000080D7200403020A58AB2C152CEB7003B9
:100FE000020A5875822012066E80EE8A8212066E00
:100FF000020A58852982852A8322AA82BA0A081001
:10100000990280FB75990D10990280FB8A99222024
:10101000F71430F6148883A88220F507E6A88375B4
:10102000830022E280F7E49322E022C0E0F84582C8
:10103000458345F07009F5F0FBFCFDFE0210F9E870
:1010400023A2F792E0F8A982AA83D2F7ABF07C0042
:101050007E07C3749798404074FF2EFE740A89F08F
:10106000A4F985F082740A8AF0A4FA85F083740AE0
:101070008BF0A4FB740529F9EA3582FAEB3583FB82
:10108000740035F0FCC3EC13FCEB13FBEA13FAE934
:1010900013F908EC70EF80BAE8C3947FF88B838E65
:1010A000F0E4FBFCFDFEFF08C3E933F9EA33FAE59F
:1010B0008333F583EB3BD4FBEC3CD4FCED3DD4FD1A
:1010C000EE3ED4FEEF3FD4FF602D05F074052BD427
:1010D000FBE43CD4FCE43DD4FDE43ED4FEE43FD448
:1010E000FF758204C3EF13FFEE13FEED13FDEC1347
:1010F000FCEB13FBD582EDD8AF7834D0E020E704C9
:10110000762B8002762D087906E7C4540F4430F61A
:1011100008B90603762E08E7540F4430F60819B9CB
:1011200002E7764508E5F020E704762B8004762D6B
:10113000F4040875F00A844430F608E5F04430F60B
:1011400008E4F690003475F0402220F71030F611D4
:101150008883A88220F507F6A88375830022F28091
:10116000F7F022AA82AB83ACF07D007E008A828BEE
:10117000838CF012100FFFA3AA82AB83EF60070DE0
:10118000BD00EA0E80E78D828E8322000000000001
:00000001FF
