:100000000200037581431200E9E582600302006F7C
:10001000780079007A007B007C007D00EC4D601C4C
:1000200088828983E493A3A882A9838A828B83F040
:10003000A3AA82AB831CBCFFE31D80E07582007520
:1000400083007C007D00EC4D600AE4F0A31CBCFF43
:10005000F51D80F27582007583007C007D00EC4DFB
:10006000600AE4F0A31CBCFFF51D80F21200E3124D
:1000700003AA80FE1B5B324A004C6162350A466966
:100080006C653A2025730A436F6D70696C65643A3C
:100090002025732C2025730A0A00443A5C436F64C0
:1000A000696E675C323032365C3239315C6C616269
:1000B000355C6C6162352E63004D61722020322008
:1000C000323032360031313A34353A323700763216
:1000D000203D20252E32660A006632203D202575FF
:1000E0000A0A00E4F509F50A2275A7007597DE757E
:1000F00097AD75FF8075EF0675A71075C12075A7C0
:100100000075A90075A900E5A930E7FB75A903757D
:10011000A903E5A930E7FB43A41075E10175E200EE
:1001200075E340759810758DE6858D8B53890F4367
:100130008920D28ED2997582002275A700C2EF75F0
:10014000B28075BC2075B91E75E80075DF3F75B3C8
:1001500000D2EF22AA82438E407592B87593FF8534
:1001600092948593957591047B00C3EB9A500BE5AF
:100170009130E7FB53917F0B80F075910022AA82AA
:10018000AB837C007D00C3EC9AED9B502B7E00BEC0
:100190000400501D7582FAC002C003C004C005C02F
:1001A00006120154D006D005D004D003D0020E8030
:1001B000DE0CBC00D10D80CE22AA828511F005F0A4
:1001C0007401800225E0D5F0FBFB75A720BA000280
:1001D000800ABA0102800FBA021E8014EBF4FA52B0
:1001E000F1EB42D48012EBF4FA52F2EB42D58008E4
:1001F000EBF4FA52F3EB42CC75A700225389F0439B
:100200008901538EF8C28C228582BBC2EDD2EC30BC
:10021000EDFD85BD8285BE83221202081204E8AA84
:1002200082AB83ACF0FDC002C003C004C005905394
:10023000F875F053744012051DAA82AB83ACF0FD33
:10024000E58124FCF581E4C0E074FCC0E0747FC06B
:10025000E07446C0E08A828B838CF0ED1206ACAA73
:1002600082AB83ACF0FDE58124FCF5818A828B832F
:100270008CF0ED2243F30C53A6F343CC0C43E34044
:100280002285820B750C00750D00750E00750F0030
:100290007F00BF20004003020329850B82C00712A4
:1002A00002081204E8A882A983AAF0FBC000C001DA
:1002B000C002C0039053F875F053744012051DAA94
:1002C00082AB83ACF0FDE58124FCF581E4C0E074F1
:1002D000FCC0E0747FC0E07446C0E08A828B838CEF
:1002E000F0ED1206ACAA82AB83ACF0FDE58124FCF4
:1002F000F581C002C003C004C005850C82850D8352
:10030000850EF0E50F12061D85820C85830D85F0A4
:100310000EF50FE58124FCF581D0070F900001C098
:100320000712017ED0070202928F821205C0AA82B4
:10033000AB83ACF0FDC002C003C004C005850C82D5
:10034000850D83850EF0E50F1206ACAA82AB83AC57
:10035000F0FDE58124FCF5818A828B838CF0ED220F
:10036000C28C758C00758A0020A2FD30A2FDD28C53
:1003700020A2FDC28CAB8C7A00AC8A7D00EC2AF501
:1003800082ED3BF583751103E4F5121204F4AA82A1
:10039000AB83C3EA9464EB94005006AA09AB0A80CD
:1003A000048A098B0A8A828B83229001F412017ECF
:1003B0007474C0E07400C0E07480C0E012068B1555
:1003C000811581158174C5C0E07400C0E07480C0DF
:1003D000E074B9C0E07400C0E07480C0E0749AC0FA
:1003E000E07400C0E07480C0E07479C0E07400C0C4
:1003F000E07480C0E012068BE58124F4F58175116C
:10040000067582011201B97511017582021201B9D6
:1004100012013A1201FC12027475820E120281AAB4
:1004200082AB83ACF0FDC002C003C004C00574CE33
:10043000C0E07400C0E07480C0E012068BE5812447
:10044000F9F581120360AA82AB838A118B127513AE
:100450000075140090424075F00FE41205CBAA829B
:10046000AB83C002C00374D9C0E07400C0E07480E4
:10047000C0E012068BE58124FBF5819001F41201A6
:100480007E8096FB7A20E4FCFDFEFFE5822582F566
:1004900082E58333F583E5F033F5F0EB33FB40176A
:1004A000DAE98042E5822582F582E58333F583E54A
:1004B000F033F5F0EB33FBEC33FCED33FDEE33FEC4
:1004C000EF33FFEC9511ED9512EE9513EF95144077
:1004D00013EC9511FCED9512FDEE9513FEEF9514BE
:1004E000FF438201DABEEB22E4AC83AB82FAF974FB
:1004F0008E0207D47A10E4FBFCE58225E0F582E564
:100500008333F583EB33FBEC33FCEB9511F5F0EC27
:1005100095124006FCABF0438201DADD221208603E
:10052000BC00030207FFEF60FA30D502B2D1E583C9
:10053000B4FF03020815E582B4FF03020815258302
:1005400040072482400B0207FF2483145003020853
:1005500015F582EA8DF0A4A8F0EA8EF0A428F8E45C
:1005600035F0F9EB8DF0A428E935F0F9E433CA8FC2
:10057000F0A429F9EA35F0FAEBF88EF0A429F9EAAB
:1005800035F0FAE433FBEC8DF0A429F9EA35F0FA02
:10059000E43BFBE88FF0A42AFAEB35F0FBE433CC24
:1005A000FD8EF0A42AFAEB35F0FBE43CFCED8FF075
:1005B000A42BFBEC35F0FC20E70312082D0207DE2C
:1005C000E4AC82FBFAF974860207D4FBC2D530E7AB
:1005D00015D2D5E4C39582F582E49583F583E4953D
:1005E000F0F5F0E49BFBE51430E717B2D5E4C395D2
:1005F00011F511E49512F512E49513F513E4951431
:10060000F514EB12048330D513FBE4C39582F58215
:10061000E49583F583E495F0F5F0E49B22120860FD
:100620007900E583B58202800D500312088EE583C0
:10063000C395821208A8E5D0C465D020E117EA2D41
:10064000FAEB3EFBEC3FFC500974011208A8EC44A5
:1006500080FC0207DEC3EA9DFAEB9EFBEC9FFC5098
:100660000FC3E499F9E49AFAE49BFBE49CFCB2D151
:1006700012082D0207DE02127785823085833185CC
:10068000F032851033900676020CCAC008858108C6
:10069000E50824FBF533E50824FBF88630088631AD
:1006A000088632900676120CCAD0082212086030F2
:1006B000D502B2D1BF0009BC00030208220208150E
:1006C000BC00030207FFE583B4FF0BE582B4FF0320
:1006D0000208220207FFE582B4FF03020815C39552
:1006E000835007247F400B0207FF2480145003022D
:1006F0000815C0E0E4CCCBCAF98D118E128F13EF30
:1007000054F0C4F5147583068514F0EB84F582E982
:10071000C4F9EAC4FAEBC4FBEC540FC47803D6FC6A
:1007200018EBD6FB18EAD6FA8582F0EDA4A8F0FD06
:100730008582F0EEA428FEE435F0F88582F0EFA47F
:1007400028FFE435F0F8E99DF9EA9EFAEB9FFBEC0F
:1007500098FCAD11AE12AF1330E7101582E92DF9F8
:10076000EA3EFAEB3FFBE43CFC80EDC082D5839887
:10077000C3E933F9EA33FAEB33FBEC33FCC3E99D0D
:10078000EA9EEB9FEC9400B3E413F9D002D0E0C4EE
:100790004AFAD003D0E0C44BFBD004D0E0F5F054CB
:1007A0000FC44CFCD082158230F40FD3EC13FCEB59
:1007B00013FBEA13FAE913F90582E930E70A740139
:1007C0002AFAE43BFBE43CFC0207F6FCABF0AA830C
:1007D000A982749EC2D1F58212082D0207DEB9806B
:1007E00003EA13B34010EA2401FAE43BFBE43CFCC7
:1007F00050047C800582BC000EBB000BBA0008E4EC
:10080000F5F0F583F58222A2D1E582138CF092F700
:100810008B838A8222E4F583F58275F080F4A2D17D
:100820001322E4F583F58275F0C0747F227804EC1E
:100830007011E58224F8500AF582E4C9CACBFCD8CD
:10084000EF22EC7820058220E713D5820122C3E94C
:1008500033F9EA33FAEB33FBEC33FCD8EA158222A6
:10086000AA82AB83A2F73392D16002D2F7F582ACB1
:10087000F0E58124F9F8E6FD08E6FE0886F008E6D2
:10088000A2F73392D56002D2F7F583AFF022E5826A
:10089000C583F582A2D133A2D592D11392D5ECCFE4
:1008A000FCEBCEFBEACDFA226040F82582500274C0
:1008B000FFF582E824F8501ECCCBCAF9E4CC24F82A
:1008C0005014CBCAF9E4CB24F8500BCAF9E4CA247B
:1008D000F8500379002224086010F8C3EC13FCEBF5
:1008E00013FBEA13FAE913F9D8F122AA8274FCC0C7
:1008F000E07408C0E0C022C0238A82220529E4B542
:100900002902052A22AA8274302AFA24C6500A74BF
:10091000072AFA3000034302208A820208EBE582AC
:10092000FAC4540FF582C002120905D002740F5A9E
:10093000F582020905AA24AB25AC26AD27AE2875A1
:100940002F20EE2EFEED235401FF4206EA2AFAEB99
:1009500033FBEC33FCED33FDC3EE952B4008EEC3C7
:10096000952BFE430201D52FD98A248B258C268D09
:10097000278E28227840E624D075F00AA4FA784120
:10098000E624D02AFA783F8603BB2D04C3E49AFA02
:10099000752B01C3E464808AF063F08095F05029E0
:1009A000752F038A0374F6252F401C052BE52F14A1
:1009B0002434F8E52F2434F98704A604772E1BEBA2
:1009C000FA6004052F80DE8B02EA30E70D78358669
:1009D000037836A6037835762E0AE52D600AE52DD4
:1009E00004FB252BF52B8005300B02052B78348674
:1009F00003E4BB2D0104FB7006200603300702054B
:100A00002B300403020ABB300557EB600C75822DB6
:100A1000C0021208EBD002801C30060C75822BC07D
:100A2000021208EBD002800D30070A758220C00246
:100A30001208EBD00278358604BC2E0C758230C0CB
:100A4000021208EBD002152CAC2C152CC3E52B9C04
:100A50004003020AFF758230C0021208EBD0028008
:100A6000E7AC2C152CC3E52B9C500C758220C002E2
:100A70001208EBD00280EA78348604BC2D0C758213
:100A80002DC0021208EBD002801C30060C75822BA0
:100A9000C0021208EBD002800D30070A758220C018
:100AA000021208EBD00278358604BC2E52758230D3
:100AB000C0021208EBD002152C8044EB600E758248
:100AC0002DC0021208EBD002152C802030060E75C6
:100AD000822BC0021208EBD002152C800F30070CBD
:100AE000758220C0021208EBD002152C78358603DF
:100AF000BB2E0C758230C0021208EBD002152C758B
:100B00002F01C20DE52F2434F88603BB4503020BE9
:100B1000BCBB2E348A03C3E464808BF063F0809501
:100B2000F0500F758230C0031208EBD0031B8B020C
:100B300080E48B02D20DE52D7038200B03020BBC34
:100B400075822E1208EB8074300D278A03EB30E794
:100B50001FC3E46480852DF063F08095F0500C7520
:100B60008230C0031208EBD003152D0B8B0280DD01
:100B70008B02300D0EC3E46480852DF063F0809508
:100B8000F05021E52F2434F886038B82C00212082E
:100B9000EBD002300D0EE52F2434F88603BB2E0275
:100BA0008002152D152CC3E46480852DF063F08040
:100BB00095F04003200D05052F020B04C3E464806B
:100BC000852DF063F08095F0500A7582301208EBA5
:100BD000152D80E830040FAA2C152CEA60087582C8
:100BE000201208EB80F122E52D7003300B0D740705
:100BF000252DFAE52CC39AF52C8006E52C24FAF570
:100C00002C752F0078348602BA2B0F20060C78340E
:100C10007620200705752F01052C200419AA2CC366
:100C2000E464808AF063F08095F0500A75822012A7
:100C300008EB152C80E7C20DE52F2434F88602BAA4
:100C400000028069BA451F3000027665C3E4648003
:100C5000852DF063F08095F0500A7582301208EB14
:100C6000152D80E8D20DC3E52F9402E433FA7014F9
:100C7000EA700EC3E46480852DF063F08095F04047
:100C800003300D16E52F2434F886028A821208EB11
:100C9000E52F24FD5012152D800E7402B52F09305A
:100CA0000B0675822E1208EB052F020C3830041942
:100CB000AA2CC3E464808AF063F08095F0500A7532
:100CC00082201208EB152C80E7228582228583235F
:100CD000E4F529F52AAA30AB31AC328A828B838CB9
:100CE000F012128CFD74012AF530E43BF5318C32A0
:100CF000EDFA7003021270BA25028003021268C274
:100D000004C205C206C207C208C209C20AC20BC297
:100D100001C202C203752B00752C00752DFFAB308C
:100D2000AC31AD328B828C838DF012128CFAA3AB76
:100D300082AC838B308C318D32BA25078A821208BF
:100D4000EB80928A06BE3000402E8A06EE24C64012
:100D50002774FFB52D13E52C75F00AA4FEEA24D004
:100D60002EF52C70BFD20580BBE52D75F00AA4FED0
:100D7000EA24D02EF52D80ACBA2E0A74FFB52DA42E
:100D8000752D00809F8A06BE6100400E8A06EE2403
:100D90008540075302DFD2008002C200BA200280E1
:100DA00075BA2303020E25BA2A03020E2ABA2B02B1
:100DB000805FBA2D028055BA4202805FBA430302B7
:100DC0000E6FBA4403020FAABA4503020FC4BA4613
:100DD00003020FC0BA4703020FC8BA4903020FAAA1
:100DE000BA4C02803BBA4E03020FCCBA4F03020F3B
:100DF000B1BA5003020F43BA5303020E93BA55031C
:100E0000020FB6BA5803020FBB020FF6D204020D4E
:100E100024D206020D24D207020D24D209020D2489
:100E2000D20A020D24D20B020D2474FFB52D2030FE
:100E3000090BE53314F88833862C020D24E533249E
:100E4000FEF888338606088607188E2C020D24309B
:100E5000090BE53314F88833862D020D24E533247D
:100E6000FEF888338606088607188E2D020D24307A
:100E7000090AE53314F888338602800FE53324FE2F
:100E8000F888338603088604188B028A821208EBDE
:100E9000020FFBE53324FDF8883386030886040837
:100EA000860518188B248C258D268B828C838DF0DB
:100EB0001213E0AB82AC838B2E74FFB52D03852E0D
:100EC0002D20041DC3E52E952C5016E52CC3952E20
:100ED000F52CAB2C152CEB60087582201208EB80EA
:100EE000F18524828525838526F012128CFBFA6019
:100EF00029AB2D152DC3E464808BF063F08095F051
:100F000050188A821208EBAB24AC25AD260BBB002F
:100F1000010C8B248C258D2680C7200403020FFB37
:100F2000C3E52E952C4003020FFBE52CC3952EF54F
:100F30002CAB2C152CEB7003020FFB7582201208D2
:100F4000EB80EEE53324FDF8883386030886040839
:100F5000860518188B248C258D26E526FB30E704A2
:100F60007A438013EB546060047A50800AEB30E6D9
:100F7000047A4980027A588A82C0021208EB75828C
:100F80003A1208EB7582301208EB7582781208EB82
:100F9000D002BA4902800BBA50028006852582121F
:100FA000091E85248212091E8051D208752B0A80E1
:100FB0004A752B088045752B0A8040752B10803BA5
:100FC000D2018037D2028033D203802FE53324FD53
:100FD000F88833860308860408860518188B248C45
:100FE000258D268B828C838DF0E5291213C7A3E50E
:100FF0002A1213C780058A821208EB2001062002FC
:1010000003300370E53324FCF88833860308860434
:101010000886050886061818188B248C258D268EC0
:1010200027E524E525E526E5278B828C838DF0EEE8
:101030001212A874FFB52D03752D06300327747F97
:101040005527FB8B28E528EB2BFB8B28E52630E783
:101050000674014528F528E528246840067499257A
:10106000284002D202300206120BE7020CD5120908
:1010700074020CD5E52B7003020CD57B3930092B9B
:10108000E53314F88833E6FC3395E0FDFEFF8C244D
:101090008D258E268F2720085EAC247D007E007F64
:1010A000008C248D258E268F27804C300A1FE53337
:1010B00024FCF88833860408860508860608860717
:1010C0001818188C248D258E268F27802AE5332426
:1010D000FEF88833860408860518ED3395E0FEFF98
:1010E0008C248D258E268F2720080CAC24AD257EE0
:1010F000007F008E268F27300B43E52445254526AB
:10110000452760397408B52B0C758230C00312086E
:10111000EBD00380287410B52B23758230C00312E6
:1011200008EBD00330000C758278C0031208EBD0B6
:1011300003800A758258C0031208EBD003300825DB
:10114000AC24AD25AE26E527FF30E717C3E49CFCB1
:10115000E49DFDE49EFEE49FFF8C248D258E268F6A
:10116000278002C208752E00D20C8B00752800C0A3
:1011700000120935D000200C0DE528C4FCE6FD4C1A
:10118000F61888038002A628052EB20CE524452512
:101190004526452770D68803E52C7003752C012061
:1011A000051A200417E52E04FCC3952C500E7582F9
:1011B00020C0031208EBD003152C80E930080E750F
:1011C000822DC0031208EBD003152C8024E52E607D
:1011D0002030060E75822BC0031208EBD003152CAD
:1011E000800F30070C758220C0031208EBD0031566
:1011F0002C20041EAC2C152CC3E52E9C502730054A
:10120000047C3080027C208C82C0031208EBD00367
:1012100080E2C3E52E952C5009E52CC3952EF52CC4
:101220008003752C008B00AB2E152EEB6022B20CC8
:10123000200C0A08E6C4540FFB8B28800786037431
:101240000F5BF528852882C000120905D00080D7E1
:10125000200403020CD5AB2C152CEB7003020CD52B
:101260007582201208EB80EE8A821208EB020CD500
:10127000852982852A8322AA82BA0A0810990280C7
:10128000FB75990D10990280FB8A992220F7143082
:10129000F6148883A88220F507E6A88375830022C8
:1012A000E280F7E49322E022C0E0F84582458345DE
:1012B000F07009F5F0FBFCFDFE021376E823A2F7BF
:1012C00092E0F8A982AA83D2F7ABF07C007E07C334
:1012D000749798404074FF2EFE740A89F0A4F98533
:1012E000F082740A8AF0A4FA85F083740A8BF0A461
:1012F000FB740529F9EA3582FAEB3583FB74003576
:10130000F0FCC3EC13FCEB13FBEA13FAE913F90846
:10131000EC70EF80BAE8C3947FF88B838EF0E4FB27
:10132000FCFDFEFF08C3E933F9EA33FAE58333F540
:1013300083EB3BD4FBEC3CD4FCED3DD4FDEE3ED442
:10134000FEEF3FD4FF602D05F074052BD4FBE43C89
:10135000D4FCE43DD4FDE43ED4FEE43FD4FF7582EA
:1013600004C3EF13FFEE13FEED13FDEC13FCEB13C0
:10137000FBD582EDD8AF7834D0E020E704762B801F
:1013800002762D087906E7C4540F4430F608B906F2
:1013900003762E08E7540F4430F60819B902E776B1
:1013A0004508E5F020E704762B8004762DF4040848
:1013B00075F00A844430F608E5F04430F608E4F6A7
:1013C00090003475F0402220F71030F6118883A881
:1013D0008220F507F6A88375830022F280F7F022B9
:1013E000AA82AB83ACF07D007E008A828B838CF076
:1013F00012128CFFA3AA82AB83EF60070DBD00EA37
:101400000E80E78D828E8322000000000000000025
:00000001FF
