:100000000200037581361200E3E582600302006F8F
:10001000780079007A007B007C007D00EC4D601C4C
:1000200088828983E493A3A882A9838A828B83F040
:10003000A3AA82AB831CBCFFE31D80E07582007520
:1000400083007C007D00EC4D600AE4F0A31CBCFF43
:10005000F51D80F27582007583007C007D00EC4DFB
:10006000600AE4F0A31CBCFFF51D80F21200DD1253
:1000700003FF80FE25750A001B5B324A004C61625B
:10008000350A46696C653A2025730A436F6D7069BD
:100090006C65643A2025732C2025730A0A00443AC3
:1000A0005C436F64696E675C323032365C32393182
:1000B0005C6C6162355C6C6162352E63004D61720F
:1000C00020203220323032360031323A32353A3165
:1000D00034003C4E4F20464C4F41543E00E4F5095D
:1000E000F50A2275A7007597DE7597AD75FF8075C7
:1000F000EF0675A71075C12075A70075A90075A931
:1001000000E5A930E7FB75A90375A903E5A930E768
:10011000FB43A41075E10175E20075E3407598108A
:10012000758DE6858D8B53890F438920D28ED299A8
:100130007582002275A700C2EF75B28075BC20756C
:10014000B91E75E80075DF3F75B300D2EF22AA82B1
:10015000438E407592B87593FF85929485939575FB
:1001600091047B00C3EB9A500BE59130E7FB539170
:100170007F0B80F075910022AA82AB837C007D000A
:10018000C3EC9AED9B502B7E00BE0400501D75827F
:10019000FAC002C003C004C005C00612014ED0065A
:1001A000D005D004D003D0020E80DE0CBC00D10DEF
:1001B00080CE22AA828511F005F07401800225E02C
:1001C000D5F0FBFB75A720BA0002800ABA010280B5
:1001D0000FBA021E8014EBF4FA52F1EB42D48012F3
:1001E000EBF4FA52F2EB42D58008EBF4FA52F3EB5F
:1001F00042CC75A700225389F0438901538EF8C27F
:100200008C228582BBC2EDD2EC30EDFD85BD8285AE
:10021000BE832212020212047FAA82AB83ACF0FDDD
:10022000C002C003C004C0059053F875F053744079
:100230001204B4AA82AB83ACF0FDE58124FCF58105
:10024000E4C0E074FCC0E0747FC0E07446C0E08AA3
:10025000828B838CF0ED1205F1AA82AB83ACF0FDAA
:10026000E58124FCF5818A828B838CF0ED2243F3B7
:100270000C53A6F343CC0C43E3402285820B750C50
:1002800000750D00750E00750F007F00BF20004047
:1002900003020323850B82C00712020212047FA807
:1002A00082A983AAF0FBC000C001C002C003905322
:1002B000F875F05374401204B4AA82AB83ACF0FD1D
:1002C000E58124FCF581E4C0E074FCC0E0747FC0EB
:1002D000E07446C0E08A828B838CF0ED1205F1AAAF
:1002E00082AB83ACF0FDE58124FCF581C002C00344
:1002F000C004C005850C82850D83850EF0E50F12C4
:10030000056285820C85830D85F00EF50FE581244D
:10031000FCF581D0070F900001C007120178D007CB
:1003200002028C8F82120557AA82AB83ACF0FDC00B
:1003300002C003C004C005850C82850D83850EF0C4
:10034000E50F1205F1AA82AB83ACF0FDE58124FC38
:10035000F5818A828B838CF0ED22C28C758C0075BE
:100360008A0020A2FD30A2FDD28C20A2FDC28CAB5F
:100370008C7A00AC8A7D00EC2AF582ED3BF5837522
:100380001103E4F51212048BAA82AB83C3EA9464CE
:10039000EB94005006AA09AB0A80048A098B0A8AEA
:1003A000828B8322C28C758C00758A0020A2FD305E
:1003B000A2FDD28C20A3FD30A3FDC28CAB8C7A00B1
:1003C000AC8A7D00EC2AF582ED3BF583751106E4DD
:1003D000F51212048BAA82AB83C002C003C002C014
:1003E000037474C0E07400C0E07480C0E01205D0F3
:1003F000E58124FBF581D003D0028A828B83229091
:1004000001F41201787478C0E07400C0E07480C018
:10041000E01205D015811581158174C9C0E0740002
:10042000C0E07480C0E074BDC0E07400C0E07480BF
:10043000C0E0749EC0E07400C0E07480C0E0747DD1
:10044000C0E07400C0E07480C0E01205D0E58124F3
:10045000F4F5817511067582011201B375110175EC
:1004600082021201B31201341201F612026E758279
:100470000E12027B12035A9001F412017880EFE40D
:10048000AC83AB82FAF9748E0207197A10E4FBFC94
:10049000E58225E0F582E58333F583EB33FBEC332E
:1004A000FCEB9511F5F0EC95124006FCABF04382A5
:1004B00001DADD221207A5BC0003020744EF60FA4F
:1004C00030D502B2D1E583B4FF0302075AE582B406
:1004D000FF0302075A258340072482400B0207448A
:1004E000248314500302075AF582EA8DF0A4A8F081
:1004F000EA8EF0A428F8E435F0F9EB8DF0A428E9B1
:1005000035F0F9E433CA8FF0A429F9EA35F0FAEBB3
:10051000F88EF0A429F9EA35F0FAE433FBEC8DF01B
:10052000A429F9EA35F0FAE43BFBE88FF0A42AFAB3
:10053000EB35F0FBE433CCFD8EF0A42AFAEB35F07A
:10054000FBE43CFCED8FF0A42BFBEC35F0FC20E74A
:1005500003120772020723E4AC82FBFAF9748602E5
:1005600007191207A57900E583B58202800D5003B3
:100570001207D3E583C395821207EDE5D0C465D099
:1005800020E117EA2DFAEB3EFBEC3FFC5009740129
:100590001207EDEC4480FC020723C3EA9DFAEB9EB0
:1005A000FBEC9FFC500FC3E499F9E49AFAE49BFB3F
:1005B000E49CFCB2D1120772020723020E5085821E
:1005C0003085833185F0328510339005BB0208B940
:1005D000C008858108E50824FBF533E50824FBF80D
:1005E00086300886310886329005BB1208B9D008DB
:1005F000221207A530D502B2D1BF0009BC00030208
:10060000076702075ABC0003020744E583B4FF0BE7
:10061000E582B4FF03020767020744E582B4FF03E3
:1006200002075AC395835007247F400B02074424D6
:100630008014500302075AC0E0E4CCCBCAF98D11F4
:100640008E128F13EF54F0C4F5147583068514F0E1
:10065000EB84F582E9C4F9EAC4FAEBC4FBEC540F6D
:10066000C47803D6FC18EBD6FB18EAD6FA8582F0DC
:10067000EDA4A8F0FD8582F0EEA428FEE435F0F8A4
:100680008582F0EFA428FFE435F0F8E99DF9EA9EB1
:10069000FAEB9FFBEC98FCAD11AE12AF1330E710F4
:1006A0001582E92DF9EA3EFAEB3FFBE43CFC80EDD4
:1006B000C082D58398C3E933F9EA33FAEB33FBEC14
:1006C00033FCC3E99DEA9EEB9FEC9400B3E413F97D
:1006D000D002D0E0C44AFAD003D0E0C44BFBD0042F
:1006E000D0E0F5F0540FC44CFCD082158230F40FEA
:1006F000D3EC13FCEB13FBEA13FAE913F90582E9D7
:1007000030E70A74012AFAE43BFBE43CFC02073BB5
:10071000FCABF0AA83A982749EC2D1F58212077243
:10072000020723B98003EA13B34010EA2401FAE474
:100730003BFBE43CFC50047C800582BC000EBB000B
:100740000BBA0008E4F5F0F583F58222A2D1E58228
:10075000138CF092F78B838A8222E4F583F58275FD
:10076000F080F4A2D11322E4F583F58275F0C07411
:100770007F227804EC7011E58224F8500AF582E4B7
:10078000C9CACBFCD8EF22EC7820058220E713D52C
:10079000820122C3E933F9EA33FAEB33FBEC33FC91
:1007A000D8EA158222AA82AB83A2F73392D16002E3
:1007B000D2F7F582ACF0E58124F9F8E6FD08E6FE13
:1007C0000886F008E6A2F73392D56002D2F7F583E7
:1007D000AFF022E582C583F582A2D133A2D592D1B2
:1007E0001392D5ECCFFCEBCEFBEACDFA226040F8B9
:1007F0002582500274FFF582E824F8501ECCCBCA43
:10080000F9E4CC24F85014CBCAF9E4CB24F8500B0B
:10081000CAF9E4CA24F8500379002224086010F8C9
:10082000C3EC13FCEB13FBEA13FAE913F9D8F1223A
:10083000AA827441C0E07408C0E0C022C0238A824A
:10084000220529E4B52902052A22AA8274302AFA4F
:1008500024C6500A74072AFA3000034302208A8211
:10086000020830E582FAC4540FF582C00212084A29
:10087000D002740F5AF58202084AAA24AB25AC268E
:10088000AD27AE28752F20EE2EFEED235401FF423A
:1008900006EA2AFAEB33FBEC33FCED33FDC3EE95AD
:1008A0002B4008EEC3952BFE430201D52FD98A2495
:1008B0008B258C268D278E2822858222858323E412
:1008C000F529F52AAA30AB31AC328A828B838CF0C1
:1008D000120E65FD74012AF530E43BF5318C32EDE2
:1008E000FA7003020E49BA25028003020E41C204C7
:1008F000C205C206C207C208C209C20AC20BC201AF
:10090000C202C203752B00752C00752DFFAB30ACF5
:1009100031AD328B828C838DF0120E65FAA3AB82DF
:10092000AC838B308C318D32BA25078A8212083025
:1009300080928A06BE3000402E8A06EE24C64027EA
:1009400074FFB52D13E52C75F00AA4FEEA24D02E11
:10095000F52C70BFD20580BBE52D75F00AA4FEEA28
:1009600024D02EF52D80ACBA2E0A74FFB52DA475B7
:100970002D00809F8A06BE6100400E8A06EE248507
:1009800040075302DFD2008002C200BA2002807505
:10099000BA2303020A14BA2A03020A19BA2B0280E4
:1009A0005FBA2D028055BA4202805FBA4303020A41
:1009B0005EBA4403020B99BA4503020BB3BA46036D
:1009C000020BAFBA4703020BB7BA4903020B99BA3D
:1009D0004C02803BBA4E03020BBBBA4F03020BA082
:1009E000BA5003020B32BA5303020A82BA55030209
:1009F0000BA5BA5803020BAA020BE5D20402091395
:100A0000D206020913D207020913D209020913D22E
:100A10000A020913D20B02091374FFB52D20300905
:100A20000BE53314F88833862C020913E53324FED2
:100A3000F888338606088607188E2C0209133009B9
:100A40000BE53314F88833862D020913E53324FEB1
:100A5000F888338606088607188E2D020913300998
:100A60000AE53314F888338602800FE53324FEF854
:100A700088338603088604188B028A8212083002A3
:100A80000BEAE53324FDF8883386030886040886DC
:100A90000518188B248C258D268B828C838DF01263
:100AA0000E9AAB82AC838B2E74FFB52D03852E2D51
:100AB00020041DC3E52E952C5016E52CC3952EF56C
:100AC0002CAB2C152CEB600875822012083080F1BD
:100AD0008524828525838526F0120E65FBFA602920
:100AE000AB2D152DC3E464808BF063F08095F0503E
:100AF000188A82120830AB24AC25AD260BBB00014E
:100B00000C8B248C258D2680C7200403020BEAC39E
:100B1000E52E952C4003020BEAE52CC3952EF52C0F
:100B2000AB2C152CEB7003020BEA758220120830F7
:100B300080EEE53324FDF8883386030886040886B2
:100B40000518188B248C258D26E526FB30E7047AC2
:100B5000438013EB546060047A50800AEB30E60463
:100B60007A4980027A588A82C00212083075823A25
:100B7000120830758230120830758278120830D031
:100B800002BA4902800BBA500280068525821208FB
:100B9000638524821208638051D208752B0A804A2B
:100BA000752B088045752B0A8040752B10803BD231
:100BB000018037D2028033D203802FE53324FDF841
:100BC0008833860308860408860518188B248C252C
:100BD0008D268B828C838DF0E529120E81A3E52A68
:100BE000120E8180058A821208302001062002033D
:100BF00030035AE53324FCF888338603088604085A
:100C000086050886061818188B248C258D268E27B5
:100C10007524D27525007526808524348525358573
:100C2000263674012534FEE43535FFAB368E248F2D
:100C3000258B268534828535838536F0120E65FB3B
:100C4000FA70030208C48A8212083080CCE52B7047
:100C5000030208C47B1A30092BE53314F88833E605
:100C6000FC3395E0FDFEFF8C248D258E268F2720FA
:100C7000085EAC247D007E007F008C248D258E26AE
:100C80008F27804C300A1FE53324FCF88833860414
:100C90000886050886060886071818188C248D25EE
:100CA0008E268F27802AE53324FEF88833860408B1
:100CB000860518ED3395E0FEFF8C248D258E268F5A
:100CC0002720080CAC24AD257E007F008E268F27C0
:100CD000300B43E52445254526452760397408B582
:100CE0002B0C758230C003120830D003802874109A
:100CF000B52B23758230C003120830D00330000CAE
:100D0000758278C003120830D003800A758258C0FB
:100D100003120830D003300825AC24AD25AE26E5FB
:100D200027FF30E717C3E49CFCE49DFDE49EFEE44E
:100D30009FFF8C248D258E268F278002C208752E5A
:100D400000D20C8B00752800C00012087AD0002059
:100D50000C0DE528C4FCE6FD4CF61888038002A6BD
:100D600028052EB20CE52445254526452770D68852
:100D700003E52C7003752C0120051A200417E52EBD
:100D800004FCC3952C500E758220C003120830D08D
:100D900003152C80E930080E75822DC0031208302F
:100DA000D003152C8024E52E602030060E75822B92
:100DB000C003120830D003152C800F30070C758249
:100DC00020C003120830D003152C20041EAC2C15B3
:100DD0002CC3E52E9C50273005047C3080027C20FB
:100DE0008C82C003120830D00380E2C3E52E952C1C
:100DF0005009E52CC3952EF52C8003752C008B0033
:100E0000AB2E152EEB6022B20C200C0A08E6C4545F
:100E10000FFB8B2880078603740F5BF528852882DB
:100E2000C00012084AD00080D72004030208C4ABD7
:100E30002C152CEB70030208C47582201208308038
:100E4000EE8A821208300208C4852982852A83220C
:100E5000AA82BA0A0810990280FB75990D109902AE
:100E600080FB8A992220F71430F6148883A8822008
:100E7000F507E6A88375830022E280F7E49322E079
:100E80002220F71030F6118883A88220F507F6A8F3
:100E90008375830022F280F7F022AA82AB83ACF044
:100EA0007D007E008A828B838CF0120E65FFA3AAE0
:100EB00082AB83EF60070DBD00EA0E80E78D828E66
:100EC000832200000000000000000000000000007D
:00000001FF
