:10000000020026750D00750E00750F00751000C2F8
:1000100008E4F511F51222000000000000000000C5
:10002000000000020505758144120668E582600340
:10003000020092780079007A007B007C007D00EC61
:100040004D601C88828983E493A3A882A9838A8255
:100050008B83F0A3AA82AB831CBCFFE31D80E075F9
:1000600082007583007C987D00EC4D600AE4F0A36B
:100070001CBCFFF51D80F27582007583007C007D3D
:1000800000EC4D600AE4F0A31CBCFFF51D80F212E9
:10009000000312097280FE417661696C61626C65D1
:1000A00020636F6D6D616E64733A0D0A002020004D
:1000B000202D20000A0045464D3820467265717596
:1000C000656E6379206D6561737572656D656E74BB
:1000D000207573696E672054696D65722F436F7563
:1000E0006E74657220302E0D0A0046696C653A20E8
:1000F000007372632F636D642E63000D0A436F6D8E
:1001000070696C65643A20004D61722020322032A3
:10011000303236002C200031333A33323A34350055
:100120000D0A0053797374656D205265736574749C
:10013000696E672E2E2E009701809C0180A301809E
:10014000AE02B50180BA0180BC01804D03CA0180B6
:10015000CF0180D101805503E00180E50180EB01F2
:10016000805D03FA0180FF018006028065031402AE
:10017000801902801E02806D032F02803402803CB1
:100180000280BD0307556E6B6E6F776E20636F6DD7
:100190006D616E643A20007469626F002D2D686590
:1001A0006C700053686F7720616C6C20636F6D6DAD
:1001B000616E6473007469626F004B0053746F70FA
:1001C000205265616420432F4C007469626F0052B5
:1001D000005374617274205265616420432F4C0097
:1001E0007469626F002D6D6F6465004D6561737594
:1001F00072652043206F72204C007469626F002D7D
:10020000726F756E6400526F756E642066726167FE
:10021000696C65007469626F00696E666F0053688F
:100220006F772064657669636520696E666F007418
:1002300069626F002D2D7265736574005265736578
:1002400074207468652053797374656D001B5B328C
:100250004A004C6162350A46696C653A2025730A8A
:10026000436F6D70696C65643A2025732C2025738B
:100270000A0A007372632F6C6162352E63004D6150
:100280007220203220323032360031343A33363A5E
:1002900033310074696D6520646966663A2025759E
:1002A0000A00706572696F643A2025750A00C008FB
:1002B00085810890009775F0801206017A00900100
:1002C00084E493FBC3EA9B400302034A9000AD75AC
:1002D000F080C002120601D002EA75F00BA4FBAC5C
:1002E000F02437FDEC3401FE8D828E83A3A3A3E4BA
:1002F00093FDA3E493FEA3E493FF8D828E838FF09E
:10030000C002C003C0041206019000B075F0801254
:100310000601D004D003EB2437FBEC3401FC740657
:100320002BF582E43CF583E493FBA3E493FCA3E484
:1003300093FD8B828C838DF01206019000B475F0D2
:1003400080120601D0020A0202BED00822C008852F
:100350008108D00822C008858108D00822C00885FD
:100360008108D00822C008858108D00822C00885ED
:1003700081089000B675F0801206019000EA75F0D1
:10038000801206019000F175F0801206019000FBCA
:1003900075F08012060190010875F0801206019038
:1003A000011475F08012060190011775F080120695
:1003B0000190012075F080120601D00822C0088546
:1003C000810890012375F08012060175EF10D008A6
:1003D0002285820985830A85F00B7D00750C007FDC
:1003E000007800E82509F9E4350AFEAA0B89828E17
:1003F000838AF0120A3BFB603CBB200F89828E830C
:100400008AF0E4120AB4750C008027E50C7023BF53
:100410000800501B8F030F8F05EB75F003A4240019
:10042000F582E43400F583E9F0A3EEF0A3EAF07579
:100430000C010880AEEFFD7001227A00900184E487
:1004400093FBC3EA9B40030204DA900000E0FBA3A5
:10045000E0FCA3E0FEEA75F00BA4FF2437F8E434D7
:1004600001F988828983A3A3A3E493F519A3E493F4
:10047000F51AA3E493F51B8B828C838EF0C002C027
:1004800005C007120A57E5828583F0D007D005D052
:100490000245F07041EF2437FFE43401FB74092F6B
:1004A000F582E43BF583E493FBA3E493FCC003C033
:1004B000047400C0E07400C0E0E4C0E074CBC0E0AD
:1004C0007404C0E0C003C0048D822215811581151B
:1004D00081D004D003220A02043C90018575F0808B
:1004E000120601900003E0FAA3E0FBA3E0FC8A827D
:1004F0008B838CF01206019000B475F08002060127
:10050000D2ACD2AF22C020C0E0C0F0C082C083C055
:1005100002C003C004C005C006C007C000C001C0BF
:10052000D075D0001098028026E50F2458F582E49B
:100530003400F583E599F0AA0F7B008A828B83A3B0
:10054000751940E4F51A120B1AAA82AB838A0F10B0
:1005500099028031E50DB50E028028E50E2418F5CC
:1005600082E43400F583E0F599AA0E7B008A828B41
:1005700083A3751940E4F51A120B1AAA82AB838A79
:100580000E8002C208D0D0D001D000D007D006D053
:1005900005D004D003D002D083D082D0F0D0E0D0F8
:1005A0002032AA82AB0D7C008B828C83A37519400C
:1005B000E4F51AC002C003C004120B1AAD82AE8368
:1005C000D004D003D002AF0E7800EDB50706EEB52B
:1005D000000280D0C2AFE50D2418F582E43400F5A6
:1005E00083EAF08B828C83A3751940E4F51A120B11
:1005F0001AAA82AB838A0D200804D208D299D2AFFE
:1006000022AA82AB83ACF08A828B838CF0120A3BE5
:10061000FD60188D820ABA00010BC002C003C0043D
:100620001205A2D004D003D00280DC22E510B50F61
:1006300003D38001C39209B32212062C50FBE510AC
:100640002458F582E43400F583E0FAAB107C008B8B
:10065000828C83A3751940E4F51AC002120B1AAB01
:1006600082D0028B108A822275A7007597DE75975B
:10067000AD75FF8075EF0675A71075C12075A700D1
:1006800075A90075A900E5A930E7FB75A90375A94F
:1006900003E5A930E7FB43A41075E10175E200759D
:1006A000E340759810758DE6858D8B53890F4389CE
:1006B00020D28ED2997582002275A700C2EF75B242
:1006C0008075BC2075B91E75E80075DF3F75B300F5
:1006D000D2EF22AA82438E407592B87593FF85921D
:1006E000948593957591047B00C3EB9A500BE5912B
:1006F00030E7FB53917F0B80F075910022AA82AB0B
:10070000837C007D00C3EC9AED9B502B7E00BE04E1
:1007100000501D7582FAC002C003C004C005C006A7
:100720001206D3D006D005D004D003D0020E80DE4E
:100730000CBC00D10D80CE22AA828519F005F07480
:1007400001800225E0D5F0FBFB75A720BA000280EE
:100750000ABA0102800FBA021E8014EBF4FA52F1B9
:10076000EB42D48012EBF4FA52F2EB42D58008EB64
:10077000F4FA52F3EB42CC75A700225389F0438977
:1007800001538EF8C28C228582BBC2EDD2EC30EDD3
:10079000FD85BD8285BE8322120787120B50AA8277
:1007A000AB83ACF0FDC002C003C004C0059053F899
:1007B00075F0537440120B85AA82AB83ACF0FDE553
:1007C0008124FCF581E4C0E074FCC0E0747FC0E0EB
:1007D0007446C0E08A828B838CF0ED120CC2AA8230
:1007E000AB83ACF0FDE58124FCF5818A828B838CA0
:1007F000F0ED2243F30C53A6F343CC0C43E3402229
:100800008582137514007515007516007517007F25
:1008100000BF200040030208A8851382C00712070A
:1008200087120B50A882A983AAF0FBC000C001C0A8
:1008300002C0039053F875F0537440120B85AA82DE
:10084000AB83ACF0FDE58124FCF581E4C0E074FCF1
:10085000C0E0747FC0E07446C0E08A828B838CF075
:10086000ED120CC2AA82AB83ACF0FDE58124FCF54D
:1008700081C002C003C004C005851482851583852C
:1008800016F0E517120C3385821485831585F01652
:10089000F517E58124FCF581D0070F900001C00712
:1008A0001206FDD0070208118F82120C28AA82AB13
:1008B00083ACF0FDC002C003C004C005851482856E
:1008C00015838516F0E517120CC2AA82AB83ACF033
:1008D000FDE58124FCF5818A828B838CF0ED225327
:1008E0008EF8C28C758C00758A0020A2FD30A2FDA6
:1008F000D28C20A2FDC28CAB8C7A00AC8A7D00EC3D
:100900002AF582ED3BF583751903E4F51A120B5CA9
:10091000AA82AB83C3EA9464EB94005006AA11AB9D
:100920001280048A118B128A828B8322538EFA439F
:100930008E02C28C758C00758A0020A2FD30A2FD4B
:10094000D28C20A3FD30A3FDC28C538EF8AB8C7AE1
:1009500000AC8A7D00EC2AF582ED3BF58375190326
:10096000E4F51A120B5CE583C58225E0C58233F5F8
:1009700083229001F41206FD744DC0E07402C0E0C1
:100980007480C0E0120CA1158115811581748AC094
:10099000E07402C0E07480C0E0747EC0E07402C005
:1009A000E07480C0E07473C0E07402C0E07480C082
:1009B000E07452C0E07402C0E07480C0E0120CA188
:1009C000E58124F4F58175190675820112073875E1
:1009D00019017582021207381206B912077B120735
:1009E000F375820E1208001208DFAA82AB83EA4B6D
:1009F00070089000641206FD80E7C002C00312096F
:100A00002CAC82AD83C004C0057493C0E07402C0F6
:100A1000E07480C0E0120CA1E58124FBF58174A292
:100A2000C0E07402C0E07480C0E0120CA1E5812433
:100A3000FBF5819001F41206FD80A620F71430F634
:100A4000148883A88220F507E6A88375830022E234
:100A500080F7E49322E022AA82AB83ACF0AD19AE1A
:100A60001AAF1B8A828B838CF0120A3BF87900C084
:100A700002C003C0048D828E838FF0120A3BFA7B82
:100A800000E8C39AF8E99BF9881C891DD004D003BB
:100A9000D002E84970178D828E838FF0120A3B6076
:100AA0000C0ABA00010B0DBD00B90E80B6851C8280
:100AB000851D832220F71030F6118883A88220F547
:100AC00007F6A88375830022F280F7F022E5194526
:100AD0001A60467A01E51925E0F519E51A33401246
:100AE000F51AE5829519E583951A40030A80E6C355
:100AF000E51A13F51AE51913F519C3E5829519F5E9
:100B0000F0E583951A4005F58385F082C3E51A1355
:100B1000F51AE51913F519DAE122C2D5E58330E7B4
:100B20000DD2D5E4C39582F582E49583F583E51A69
:100B300030E70BE4C39519F519E4951AF51A120A72
:100B4000CD30D50BE4C39582F582E49583F58322FD
:100B5000E4AC83AB82FAF9748E020DEA7A10E4FBFE
:100B6000FCE58225E0F582E58333F583EB33FBEC8E
:100B700033FCEB9519F5F0EC951A4006FCABF0430D
:100B80008201DADD22120E76BC0003020E15EF6040
:100B9000FA30D502B2D1E583B4FF03020E2BE58211
:100BA000B4FF03020E2B258340072482400B020E64
:100BB000152483145003020E2BF582EA8DF0A4A8AD
:100BC000F0EA8EF0A428F8E435F0F9EB8DF0A428D3
:100BD000E935F0F9E433CA8FF0A429F9EA35F0FADF
:100BE000EBF88EF0A429F9EA35F0FAE433FBEC8D4A
:100BF000F0A429F9EA35F0FAE43BFBE88FF0A42AE7
:100C0000FAEB35F0FBE433CCFD8EF0A42AFAEB3599
:100C1000F0FBE43CFCED8FF0A42BFBEC35F0FC206A
:100C2000E703120E43020DF4E4AC82FBFAF974867A
:100C3000020DEA120E767900E583B58202800D502E
:100C400003120EA4E583C39582120EBEE5D0C465DF
:100C5000D020E117EA2DFAEB3EFBEC3FFC50097483
:100C600001120EBEEC4480FC020DF4C3EA9DFAEBC7
:100C70009EFBEC9FFC500FC3E499F9E49AFAE49BC5
:100C8000FBE49CFCB2D1120E43020DF402188D85D8
:100C9000823185833285F033851834900C8C0212B2
:100CA000E0C008858108E50824FBF534E50824FB4D
:100CB000F88631088632088633900C8C1212E0D008
:100CC0000822120E7630D502B2D1BF0009BC000353
:100CD000020E38020E2BBC0003020E15E583B4FF92
:100CE0000BE582B4FF03020E38020E15E582B4FF55
:100CF00003020E2BC395835007247F400B020E1571
:100D00002480145003020E2BC0E0E4CCCBCAF98D32
:100D1000198E1A8F1BEF54F0C4F51C758306851CC1
:100D2000F0EB84F582E9C4F9EAC4FAEBC4FBEC54B5
:100D30000FC47803D6FC18EBD6FB18EAD6FA8582E6
:100D4000F0EDA4A8F0FD8582F0EEA428FEE435F0D5
:100D5000F88582F0EFA428FFE435F0F8E99DF9EA80
:100D60009EFAEB9FFBEC98FCAD19AE1AAF1B30E777
:100D7000101582E92DF9EA3EFAEB3FFBE43CFC80DA
:100D8000EDC082D58398C3E933F9EA33FAEB33FB3C
:100D9000EC33FCC3E99DEA9EEB9FEC9400B3E413B3
:100DA000F9D002D0E0C44AFAD003D0E0C44BFBD063
:100DB00004D0E0F5F0540FC44CFCD082158230F41E
:100DC0000FD3EC13FCEB13FBEA13FAE913F90582DA
:100DD000E930E70A74012AFAE43BFBE43CFC020E2A
:100DE0000CFCABF0AA83A982749EC2D1F582120ECC
:100DF00043020DF4B98003EA13B34010EA2401FA68
:100E0000E43BFBE43CFC50047C800582BC000EBB50
:100E1000000BBA0008E4F5F0F583F58222A2D1E5D3
:100E200082138CF092F78B838A8222E4F583F58219
:100E300075F080F4A2D11322E4F583F58275F0C039
:100E4000747F227804EC7011E58224F8500AF58250
:100E5000E4C9CACBFCD8EF22EC7820058220E71346
:100E6000D5820122C3E933F9EA33FAEB33FBEC33E1
:100E7000FCD8EA158222AA82AB83A2F73392D16012
:100E800002D2F7F582ACF0E58124F9F8E6FD08E638
:100E9000FE0886F008E6A2F73392D56002D2F7F595
:100EA00083AFF022E582C583F582A2D133A2D59229
:100EB000D11392D5ECCFFCEBCEFBEACDFA22604009
:100EC000F82582500274FFF582E824F8501ECCCB3E
:100ED000CAF9E4CC24F85014CBCAF9E4CB24F85076
:100EE0000BCAF9E4CA24F8500379002224086010E0
:100EF000F8C3EC13FCEB13FBEA13FAE913F9D8F18E
:100F000022AA827412C0E0740FC0E0C023C0248AF9
:100F10008222052AE4B52A02052B22AA8274302AED
:100F2000FA24C6500A74072AFA300A034302208AB8
:100F300082020F01E582FAC4540FF582C002120F3B
:100F40001BD002740F5AF582020F1BAA25AB26ACE8
:100F500027AD28AE29753020EE2EFEED235401FF7B
:100F60004206EA2AFAEB33FBEC33FCED33FDC3EE29
:100F7000952C4008EEC3952CFE430201D530D98A4A
:100F8000258B268C278D288E29227841E624D07542
:100F9000F00AA4FA7842E624D02AFA78408603BB05
:100FA0002D04C3E49AFA752C01C3E464808AF063CB
:100FB000F08095F050297530038A0374F62530408F
:100FC0001C052CE530142435F8E5302435F9870468
:100FD000A604772E1BEBFA6004053080DE8B02EA54
:100FE00030E70D783686037837A6037836762E0AF2
:100FF000E52E600AE52E04FB252CF52C8005301526
:1010000002052C78358603E4BB2D0104FB70062015
:101010001003301102052C300E030210D1300F578F
:10102000EB600C75822DC002120F01D002801C30C3
:10103000100C75822BC002120F01D002800D3011EE
:101040000A758220C002120F01D00278368604BCD5
:101050002E0C758230C002120F01D002152DAC2D5E
:10106000152DC3E52C9C4003021115758230C0027A
:10107000120F01D00280E7AC2D152DC3E52C9C503A
:101080000C758220C002120F01D00280EA783586EA
:1010900004BC2D0C75822DC002120F01D002801CE1
:1010A00030100C75822BC002120F01D002800D305F
:1010B000110A758220C002120F01D0027836860410
:1010C000BC2E52758230C002120F01D002152D8045
:1010D00044EB600E75822DC002120F01D002152D57
:1010E000802030100E75822BC002120F01D0021525
:1010F0002D800F30110C758220C002120F01D0021A
:10110000152D78368603BB2E0C758230C002120F67
:1011100001D002152D753001C217E5302435F8864F
:1011200003BB45030211D2BB2E348A03C3E464809F
:101130008BF063F08095F0500F758230C003120F72
:1011400001D0031B8B0280E48B02D217E52E70388E
:101150002015030211D275822E120F0180743017F0
:10116000278A03EB30E71FC3E46480852EF063F029
:101170008095F0500C758230C003120F01D003151A
:101180002E0B8B0280DD8B0230170EC3E46480854A
:101190002EF063F08095F05021E5302435F8860379
:1011A0008B82C002120F01D00230170EE5302435B9
:1011B000F88603BB2E028002152E152DC3E4648031
:1011C000852EF063F08095F040032017050530026E
:1011D000111AC3E46480852EF063F08095F0500A04
:1011E000758230120F01152E80E8300E0FAA2D15D2
:1011F0002DEA6008758220120F0180F122E52E7021
:101200000330150D7407252EFAE52DC39AF52D80B0
:1012100006E52D24FAF52D75300078358602BA2BB7
:101220000F20100C78357620201105753001052D22
:10123000200E19AA2DC3E464808AF063F08095F033
:10124000500A758220120F01152D80E7C217E53074
:101250002435F88602BA00028069BA451F300A02B6
:101260007665C3E46480852EF063F08095F0500AC3
:10127000758230120F01152E80E8D217C3E5309425
:1012800002E433FA7014EA700EC3E46480852EF031
:1012900063F08095F04003301716E5302435F8866A
:1012A000028A82120F01E53024FD5012152E800EA5
:1012B0007402B5300930150675822E120F01053003
:1012C00002124E300E19AA2DC3E464808AF063F036
:1012D0008095F0500A758220120F01152D80E722AB
:1012E000858223858324E4F52AF52BAA31AB32AC21
:1012F000338A828B838CF0120A3BFD74012AF5310C
:10130000E43BF5328C33EDFA7003021886BA2502FD
:10131000800302187EC20EC20FC210C211C212C2D6
:1013200013C214C215C20BC20CC20D752C00752D50
:1013300000752EFFAB31AC32AD338B828C838DF0D8
:10134000120A3BFAA3AB82AC838B318C328D33BA59
:1013500025078A82120F0180928A06BE3000402E35
:101360008A06EE24C6402774FFB52E13E52D75F0CE
:101370000AA4FEEA24D02EF52D70BFD20F80BBE563
:101380002E75F00AA4FEEA24D02EF52E80ACBA2EDB
:101390000A74FFB52EA4752E00809F8A06BE6100D8
:1013A000400E8A06EE248540075302DFD20A8002EF
:1013B000C20ABA20028075BA230302143BBA2A0378
:1013C000021440BA2B02805FBA2D028055BA420245
:1013D000805FBA4303021485BA44030215C0BA45BC
:1013E000030215DABA46030215D6BA47030215DE20
:1013F000BA49030215C0BA4C02803BBA4E0302152B
:10140000E2BA4F030215C7BA5003021559BA530383
:101410000214A9BA55030215CCBA58030215D10219
:10142000160CD20E02133AD21002133AD211021342
:101430003AD21302133AD21402133AD21502133AD3
:1014400074FFB52E2030130BE53414F88834862D44
:1014500002133AE53424FEF8883486060886071815
:101460008E2D02133A30130BE53414F88834862E8F
:1014700002133AE53424FEF88834860608860718F5
:101480008E2E02133A30130AE53414F8883486029B
:10149000800FE53424FEF888348603088604188B10
:1014A000028A82120F01021611E53424FDF88834F5
:1014B000860308860408860518188B258C268D2738
:1014C0008B828C838DF01219C1AB82AC838B2F740D
:1014D000FFB52E03852F2E200E1DC3E52F952D5011
:1014E00016E52DC3952FF52DAB2D152DEB60087549
:1014F0008220120F0180F18525828526838527F0C1
:10150000120A3BFBFA6029AB2E152EC3E464808BD4
:10151000F063F08095F050188A82120F01AB25AC71
:1015200026AD270BBB00010C8B258C268D2780C791
:10153000200E03021611C3E52F952D40030216114C
:10154000E52DC3952FF52DAB2D152DEB7003021650
:1015500011758220120F0180EEE53424FDF88834E5
:10156000860308860408860518188B258C268D2787
:10157000E527FB30E7047A438013EB546060047A7C
:1015800050800AEB30E6047A4980027A588A82C099
:1015900002120F0175823A120F01758230120F018B
:1015A000758278120F01D002BA4902800BBA50023C
:1015B0008006852682120F34852582120F348051D1
:1015C000D212752C0A804A752C088045752C0A8029
:1015D00040752C10803BD20B8037D20C8033D20D5B
:1015E000802FE53424FDF8883486030886040886B5
:1015F0000518188B258C268D278B828C838DF0E522
:101600002A120AB4A3E52B120AB480058A82120FAB
:1016100001200B06200C03300D70E53424FCF88803
:101620003486030886040886050886061818188B71
:10163000258C268D278E28E525E526E527E5288BB0
:10164000828C838DF0EE1218A274FFB52E03752ED6
:1016500006300D27747F5528FB8B29E529EB2BFBE2
:101660008B29E52730E70674014529F529E529246A
:10167000684006749925294002D20C300C061211DC
:10168000FD0212EB120F8A0212EBE52C700302121C
:10169000EB7B3A30132BE53414F88834E6FC3395B1
:1016A000E0FDFEFF8C258D268E278F2820125EAC54
:1016B000257D007E007F008C258D268E278F28803B
:1016C0004C30141FE53424FCF88834860408860561
:1016D0000886060886071818188C258D268E278FF1
:1016E00028802AE53424FEF8883486040886051804
:1016F000ED3395E0FEFF8C258D268E278F28201256
:101700000CAC25AD267E007F008E278F2830154338
:10171000E52545264527452860397408B52C0C7504
:101720008230C003120F01D00380287410B52C231F
:10173000758230C003120F01D003300A0C75827815
:10174000C003120F01D003800A758258C003120F24
:1017500001D003301225AC25AD26AE27E528FF3099
:10176000E717C3E49CFCE49DFDE49EFEE49FFF8C30
:10177000258D268E278F288002C212752F00D21643
:101780008B00752900C000120F4BD00020160DE50C
:1017900029C4FCE6FD4CF61888038002A629052F13
:1017A000B216E52545264527452870D68803E52D40
:1017B0007003752D01200F1A200E17E52F04FCC3AE
:1017C000952D500E758220C003120F01D003152DE8
:1017D00080E930120E75822DC003120F01D003155F
:1017E0002D8024E52F602030100E75822BC003124F
:1017F0000F01D003152D800F30110C758220C0030E
:10180000120F01D003152D200E1EAC2D152DC3E592
:101810002F9C5027300F047C3080027C208C82C0AB
:1018200003120F01D00380E2C3E52F952D5009E587
:101830002DC3952FF52D8003752D008B00AB2F1533
:101840002FEB6022B21620160A08E6C4540FFB8B59
:101850002980078603740F5BF529852982C0001251
:101860000F1BD00080D7200E030212EBAB2D152DDD
:10187000EB70030212EB758220120F0180EE8A8258
:10188000120F010212EB852A82852B8322AA82BACB
:101890000A0810990280FB75990D10990280FB8A45
:1018A0009922C0E0F84582458345F07009F5F0FBC8
:1018B000FCFDFE021970E823A2F792E0F8A982AAC3
:1018C00083D2F7ABF07C007E07C3749798404074D6
:1018D000FF2EFE740A89F0A4F985F082740A8AF05A
:1018E000A4FA85F083740A8BF0A4FB740529F9EA45
:1018F0003582FAEB3583FB740035F0FCC3EC13FC46
:10190000EB13FBEA13FAE913F908EC70EF80BAE87D
:10191000C3947FF88B838EF0E4FBFCFDFEFF08C3CD
:10192000E933F9EA33FAE58333F583EB3BD4FBEC97
:101930003CD4FCED3DD4FDEE3ED4FEEF3FD4FF6041
:101940002D05F074052BD4FBE43CD4FCE43DD4FD20
:10195000E43ED4FEE43FD4FF758204C3EF13FFEEF0
:1019600013FEED13FDEC13FCEB13FBD582EDD8AFAA
:101970007835D0E020E704762B8002762D087906B2
:10198000E7C4540F4430F608B90603762E08E7542E
:101990000F4430F60819B902E7764508E5F020E76C
:1019A00004762B8004762DF4040875F00A84443004
:1019B000F608E5F04430F608E4F690003575F0409E
:1019C00022AA82AB83ACF07D007E008A828B838C5E
:1019D000F0120A3BFFA3AA82AB83EF60070DBD00A4
:1019E000EA0E80E78D828E83220000000000000056
:00000001FF
