:10000000020026750D00750E00750F00751000C2F8
:1000100008E4F511F51222000000000000000000C5
:100020000000000204F975813D12065CE582600360
:10003000020092780079007A007B007C007D00EC61
:100040004D601C88828983E493A3A882A9838A8255
:100050008B83F0A3AA82AB831CBCFFE31D80E075F9
:1000600082007583007C987D00EC4D600AE4F0A36B
:100070001CBCFFF51D80F27582007583007C007D3D
:1000800000EC4D600AE4F0A31CBCFFF51D80F212E9
:10009000000312099580FE417661696C61626C65AE
:1000A00020636F6D6D616E64733A0D0A002020004D
:1000B000202D20000A0045464D3820467265717596
:1000C000656E6379206D6561737572656D656E74BB
:1000D000207573696E672054696D65722F436F7563
:1000E0006E74657220302E0D0A0046696C653A20E8
:1000F000007372632F636D642E63000D0A436F6D8E
:1001000070696C65643A20004D61722020322032A3
:10011000303236002C200031333A33323A34350055
:100120000D0A0053797374656D205265736574749C
:10013000696E672E2E2E009701809C0180A301809E
:10014000A202B50180BA0180BC01804103CA0180CE
:10015000CF0180D101804903E00180E50180EB01FE
:10016000805103FA0180FF018006028059031402C6
:10017000801902801E028061032F02803402803CBD
:100180000280B10307556E6B6E6F776E20636F6DE3
:100190006D616E643A20007469626F002D2D686590
:1001A0006C700053686F7720616C6C20636F6D6DAD
:1001B000616E6473007469626F004B0053746F70FA
:1001C000205265616420432F4C007469626F0052B5
:1001D000005374617274205265616420432F4C0097
:1001E0007469626F002D6D6F6465004D6561737594
:1001F00072652043206F72204C007469626F002D7D
:10020000726F756E6400526F756E642066726167FE
:10021000696C65007469626F00696E666F0053688F
:100220006F772064657669636520696E666F007418
:1002300069626F002D2D7265736574005265736578
:1002400074207468652053797374656D0025750A90
:10025000001B5B324A004C6162350A46696C653AA4
:100260002025730A436F6D70696C65643A202573AD
:100270002C2025730A0A007372632F6C6162352E7D
:1002800063004D617220203220323032360031332B
:100290003A32383A3431003C4E4F20464C4F4154AC
:1002A0003E00C00885810890009775F0801205F522
:1002B0007A00900184E493FBC3EA9B400302033E6F
:1002C0009000AD75F080C0021205F5D002EA75F01D
:1002D0000BA4FBACF02437FDEC3401FE8D828E8341
:1002E000A3A3A3E493FDA3E493FEA3E493FF8D8271
:1002F0008E838FF0C002C003C0041205F59000B0D9
:1003000075F0801205F5D004D003EB2437FBEC34F4
:1003100001FC74062BF582E43CF583E493FBA3E433
:1003200093FCA3E493FD8B828C838DF01205F590F2
:1003300000B475F0801205F5D0020A0202B2D008AE
:1003400022C008858108D00822C008858108D0080D
:1003500022C008858108D00822C008858108D008FD
:1003600022C0088581089000B675F0801205F590CE
:1003700000EA75F0801205F59000F175F080120525
:10038000F59000FB75F0801205F590010875F0807E
:100390001205F590011475F0801205F5900117759E
:1003A000F0801205F590012075F0801205F5D00857
:1003B00022C00885810890012375F0801205F5752B
:1003C000EF10D0082285820985830A85F00B7D0015
:1003D000750C007F007800E82509F9E4350AFEAACB
:1003E0000B89828E838AF0120A18FB603CBB200FB7
:1003F00089828E838AF0E4120A91750C008027E5C9
:100400000C7023BF0800501B8F030F8F05EB75F096
:1004100003A42400F582E43400F583E9F0A3EEF0B0
:10042000A3EAF0750C010880AEEFFD7001227A009E
:10043000900184E493FBC3EA9B40030204CE900046
:1004400000E0FBA3E0FCA3E0FEEA75F00BA4FF24B0
:1004500037F8E43401F988828983A3A3A3E493F5F0
:1004600019A3E493F51AA3E493F51B8B828C838E76
:10047000F0C002C005C007120A34E5828583F0D0BF
:1004800007D005D00245F07041EF2437FFE4340176
:10049000FB74092FF582E43BF583E493FBA3E4931B
:1004A000FCC003C0047400C0E07400C0E0E4C0E01D
:1004B00074BFC0E07404C0E0C003C0048D82221584
:1004C0008115811581D004D003220A0204309001E5
:1004D0008575F0801205F5900003E0FAA3E0FBA318
:1004E000E0FC8A828B838CF01205F59000B475F0E5
:1004F000800205F5D2ACD2AF22C020C0E0C0F0C06F
:1005000082C083C002C003C004C005C006C007C0CB
:1005100000C001C0D075D0001098028026E50F24DD
:1005200058F582E43400F583E599F0AA0F7B008A40
:10053000828B83A3751940E4F51A120AF7AA82ABDD
:10054000838A0F1099028031E50DB50E028028E5EF
:100550000E2418F582E43400F583E0F599AA0E7BA9
:10056000008A828B83A3751940E4F51A120AF7AA50
:1005700082AB838A0E8002C208D0D0D001D000D0D6
:1005800007D006D005D004D003D002D083D082D0CB
:10059000F0D0E0D02032AA82AB0D7C008B828C831D
:1005A000A3751940E4F51AC002C003C004120AF78B
:1005B000AD82AE83D004D003D002AF0E7800EDB58B
:1005C0000706EEB5000280D0C2AFE50D2418F58213
:1005D000E43400F583EAF08B828C83A3751940E440
:1005E000F51A120AF7AA82AB838A0D200804D208F2
:1005F000D299D2AF22AA82AB83ACF08A828B838C51
:10060000F0120A18FD60188D820ABA00010BC002B0
:10061000C003C004120596D004D003D00280DC22AF
:10062000E510B50F03D38001C39209B3221206204F
:1006300050FBE5102458F582E43400F583E0FAAB72
:10064000107C008B828C83A3751940E4F51AC002DC
:10065000120AF7AB82D0028B108A822275A700752E
:1006600097DE7597AD75FF8075EF0675A71075C19C
:100670002075A70075A90075A900E5A930E7FB75ED
:10068000A90375A903E5A930E7FB43A41075E101AF
:1006900075E20075E340759810758DE6858D8B5376
:1006A000890F438920D28ED2997582002275A700C6
:1006B000C2EF75B28075BC2075B91E75E80075DF94
:1006C0003F75B300D2EF22AA82438E407592B8756F
:1006D00093FF8592948593957591047B00C3EB9A63
:1006E000500BE59130E7FB53917F0B80F075910043
:1006F00022AA82AB837C007D00C3EC9AED9B502B39
:100700007E00BE0400501D7582FAC002C003C00402
:10071000C005C0061206C7D006D005D004D003D04D
:10072000020E80DE0CBC00D10D80CE22AA8285197B
:10073000F005F07401800225E0D5F0FBFB75A720E1
:10074000BA0002800ABA0102800FBA021E8014EBBE
:10075000F4FA52F1EB42D48012EBF4FA52F2EB428B
:10076000D58008EBF4FA52F3EB42CC75A700225384
:1007700089F0438901538EF8C28C228582BBC2ED79
:10078000D2EC30EDFD85BD8285BE832212077B123F
:100790000B2DAA82AB83ACF0FDC002C003C004C025
:1007A000059053F875F0537440120B62AA82AB8324
:1007B000ACF0FDE58124FCF581E4C0E074FCC0E010
:1007C000747FC0E07446C0E08A828B838CF0ED12A7
:1007D0000C9FAA82AB83ACF0FDE58124FCF5818AF5
:1007E000828B838CF0ED2243F30C53A6F343CC0CA5
:1007F00043E34022858213751400751500751600B9
:100800007517007F00BF2000400302089C851382FB
:10081000C00712077B120B2DA882A983AAF0FBC088
:1008200000C001C002C0039053F875F05374401229
:100830000B62AA82AB83ACF0FDE58124FCF581E478
:10084000C0E074FCC0E0747FC0E07446C0E08A82FF
:100850008B838CF0ED120C9FAA82AB83ACF0FDE58C
:100860008124FCF581C002C003C004C00585148248
:100870008515838516F0E517120C10858214858383
:100880001585F016F517E58124FCF581D0070F904A
:100890000001C0071206F1D0070208058F82120C72
:1008A00005AA82AB83ACF0FDC002C003C004C00542
:1008B0008514828515838516F0E517120C9FAA8290
:1008C000AB83ACF0FDE58124FCF5818A828B838CBF
:1008D000F0ED22538EF8C28C758C00758A0020A230
:1008E000FD30A2FDD28C20A2FDC28CAB8C7A00AC74
:1008F0008A7D00EC2AF582ED3BF583751903E4F55A
:100900001A120B39AA82AB83C3EA9464EB940050A9
:1009100006AA11AB1280048A118B128A828B832261
:10092000538EFA438E02C28C758C00758A0020A209
:10093000FD30A2FDD28C20A3FD30A3FDC28CAB8C78
:100940007A00AC8A7D00EC2AF582ED3BF5837519BF
:1009500003E4F51A120B39AA82E583CA25E0CA33EB
:10096000FBAD8C7C00AE8A7F00EE2CFCEF3DFDC021
:1009700002C003C004C005744DC0E07402C0E0743E
:1009800080C0E0120C7EE58124FBF581D003D0020B
:100990008A828B83229001F41206F17451C0E074B4
:1009A00002C0E07480C0E0120C7E158115811581B3
:1009B000748EC0E07402C0E07480C0E07482C0E055
:1009C0007402C0E07480C0E07477C0E07402C0E0DC
:1009D0007480C0E07456C0E07402C0E07480C0E06F
:1009E000120C7EE58124F4F58175190675820112D9
:1009F000072C75190175820212072C1206AD120719
:100A00006F1207E775820E1207F41208D31209203D
:100A10009001F41206F180EC20F71430F61488836C
:100A2000A88220F507E6A88375830022E280F7E418
:100A30009322E022AA82AB83ACF0AD19AE1AAF1BB1
:100A40008A828B838CF0120A18F87900C002C003E6
:100A5000C0048D828E838FF0120A18FA7B00E8C3DF
:100A60009AF8E99BF9881C891DD004D003D002E8CC
:100A70004970178D828E838FF0120A18600C0ABAA3
:100A800000010B0DBD00B90E80B6851C82851D834B
:100A90002220F71030F6118883A88220F507F6A8E7
:100AA0008375830022F280F7F022E519451A60462B
:100AB0007A01E51925E0F519E51A334012F51AE532
:100AC000829519E583951A40030A80E6C3E51A1357
:100AD000F51AE51913F519C3E5829519F5F0E583C3
:100AE000951A4005F58385F082C3E51A13F51AE5DA
:100AF0001913F519DAE122C2D5E58330E70DD2D515
:100B0000E4C39582F582E49583F583E51A30E70B1B
:100B1000E4C39519F519E4951AF51A120AAA30D505
:100B20000BE4C39582F582E49583F58322E4AC83DC
:100B3000AB82FAF9748E020DC77A10E4FBFCE582F1
:100B400025E0F582E58333F583EB33FBEC33FCEBF7
:100B50009519F5F0EC951A4006FCABF0438201DAEA
:100B6000DD22120E53BC0003020DF2EF60FA30D505
:100B700002B2D1E583B4FF03020E08E582B4FF039D
:100B8000020E08258340072482400B020DF22483C5
:100B9000145003020E08F582EA8DF0A4A8F0EA8E44
:100BA000F0A428F8E435F0F9EB8DF0A428E935F04D
:100BB000F9E433CA8FF0A429F9EA35F0FAEBF88E9C
:100BC000F0A429F9EA35F0FAE433FBEC8DF0A4291E
:100BD000F9EA35F0FAE43BFBE88FF0A42AFAEB35AA
:100BE000F0FBE433CCFD8EF0A42AFAEB35F0FBE405
:100BF0003CFCED8FF0A42BFBEC35F0FC20E703125E
:100C00000E20020DD1E4AC82FBFAF97486020DC706
:100C1000120E537900E583B58202800D5003120E47
:100C200081E583C39582120E9BE5D0C465D020E197
:100C300017EA2DFAEB3EFBEC3FFC50097401120E53
:100C40009BEC4480FC020DD1C3EA9DFAEB9EFBECC9
:100C50009FFC500FC3E499F9E49AFAE49BFBE49CEF
:100C6000FCB2D1120E20020DD10214FE8582318514
:100C7000833285F033851834900C69020F67C00801
:100C8000858108E50824FBF534E50824FBF8863166
:100C9000088632088633900C69120F67D00822123A
:100CA0000E5330D502B2D1BF0009BC0003020E15AD
:100CB000020E08BC0003020DF2E583B4FF0BE582CF
:100CC000B4FF03020E15020DF2E582B4FF03020E1B
:100CD00008C395835007247F400B020DF224801433
:100CE0005003020E08C0E0E4CCCBCAF98D198E1A6D
:100CF0008F1BEF54F0C4F51C758306851CF0EB8444
:100D0000F582E9C4F9EAC4FAEBC4FBEC540FC478E9
:100D100003D6FC18EBD6FB18EAD6FA8582F0EDA4D0
:100D2000A8F0FD8582F0EEA428FEE435F0F8858277
:100D3000F0EFA428FFE435F0F8E99DF9EA9EFAEB1C
:100D40009FFBEC98FCAD19AE1AAF1B30E710158273
:100D5000E92DF9EA3EFAEB3FFBE43CFC80EDC08272
:100D6000D58398C3E933F9EA33FAEB33FBEC33FC70
:100D7000C3E99DEA9EEB9FEC9400B3E413F9D00223
:100D8000D0E0C44AFAD003D0E0C44BFBD004D0E09A
:100D9000F5F0540FC44CFCD082158230F40FD3EC24
:100DA00013FCEB13FBEA13FAE913F90582E930E7C8
:100DB0000A74012AFAE43BFBE43CFC020DE9FCABBB
:100DC000F0AA83A982749EC2D1F582120E20020D70
:100DD000D1B98003EA13B34010EA2401FAE43BFBE3
:100DE000E43CFC50047C800582BC000EBB000BBAC6
:100DF0000008E4F5F0F583F58222A2D1E582138C98
:100E0000F092F78B838A8222E4F583F58275F08075
:100E1000F4A2D11322E4F583F58275F0C0747F2229
:100E20007804EC7011E58224F8500AF582E4C9CA0E
:100E3000CBFCD8EF22EC7820058220E713D5820185
:100E400022C3E933F9EA33FAEB33FBEC33FCD8EA9B
:100E5000158222AA82AB83A2F73392D16002D2F725
:100E6000F582ACF0E58124F9F8E6FD08E6FE088697
:100E7000F008E6A2F73392D56002D2F7F583AFF01F
:100E800022E582C583F582A2D133A2D592D11392F5
:100E9000D5ECCFFCEBCEFBEACDFA226040F8258200
:100EA000500274FFF582E824F8501ECCCBCAF9E456
:100EB000CC24F85014CBCAF9E4CB24F8500BCAF96F
:100EC000E4CA24F8500379002224086010F8C3EC27
:100ED00013FCEB13FBEA13FAE913F9D8F122AA8207
:100EE00074EFC0E0740EC0E0C023C0248A822205E3
:100EF0002AE4B52A02052B22AA8274302AFA24C6D3
:100F0000500A74072AFA300A034302208A82020E2A
:100F1000DEE582FAC4540FF582C002120EF8D00248
:100F2000740F5AF582020EF8AA25AB26AC27AD281D
:100F3000AE29753020EE2EFEED235401FF4206EA65
:100F40002AFAEB33FBEC33FCED33FDC3EE952C407A
:100F500008EEC3952CFE430201D530D98A258B2695
:100F60008C278D288E2922858223858324E4F52AE7
:100F7000F52BAA31AB32AC338A828B838CF0120A08
:100F800018FD74012AF531E43BF5328C33EDFA702B
:100F9000030214F7BA250280030214EFC20EC20F37
:100FA000C210C211C212C213C214C215C20BC20CAB
:100FB000C20D752C00752D00752EFFAB31AC32AD16
:100FC000338B828C838DF0120A18FAA3AB82AC8328
:100FD0008B318C328D33BA25078A82120EDE8092D5
:100FE0008A06BE3000402E8A06EE24C6402774FFD3
:100FF000B52E13E52D75F00AA4FEEA24D02EF52DAA
:1010000070BFD20F80BBE52E75F00AA4FEEA24D093
:101010002EF52E80ACBA2E0A74FFB52EA4752E00C4
:10102000809F8A06BE6100400E8A06EE2485400736
:101030005302DFD20A8002C20ABA20028075BA23A4
:10104000030210C2BA2A030210C7BA2B02805FBA89
:101050002D028055BA4202805FBA430302110CBAD6
:101060004403021247BA4503021261BA4603021250
:101070005DBA4703021265BA4903021247BA4C022D
:10108000803BBA4E03021269BA4F0302124EBA50A5
:10109000030211E0BA5303021130BA55030212538E
:1010A000BA5803021258021293D20E020FC1D21084
:1010B000020FC1D211020FC1D213020FC1D214020A
:1010C0000FC1D215020FC174FFB52E2030130BE5EE
:1010D0003414F88834862D020FC1E53424FEF888D4
:1010E000348606088607188E2D020FC130130BE5D3
:1010F0003414F88834862E020FC1E53424FEF888B3
:10110000348606088607188E2E020FC130130AE5B2
:101110003414F888348602800FE53424FEF88834CD
:101120008603088604188B028A82120EDE02129849
:10113000E53424FDF88834860308860408860518FB
:10114000188B258C268D278B828C838DF01215139E
:10115000AB82AC838B2F74FFB52E03852F2E200E10
:101160001DC3E52F952D5016E52DC3952FF52DABFD
:101170002D152DEB6008758220120EDE80F185257D
:10118000828526838527F0120A18FBFA6029AB2E88
:10119000152EC3E464808BF063F08095F050188ABC
:1011A00082120EDEAB25AC26AD270BBB00010C8BEB
:1011B000258C268D2780C7200E03021298C3E52FA9
:1011C000952D4003021298E52DC3952FF52DAB2DDB
:1011D000152DEB7003021298758220120EDE80EE40
:1011E000E53424FDF888348603088604088605184B
:1011F000188B258C268D27E527FB30E7047A438062
:1012000013EB546060047A50800AEB30E6047A49AC
:1012100080027A588A82C002120EDE75823A120E5D
:10122000DE758230120EDE758278120EDED002BAC2
:101230004902800BBA50028006852682120F118562
:101240002582120F118051D212752C0A804A752CFA
:10125000088045752C0A8040752C10803BD20B808D
:1012600037D20C8033D20D802FE53424FDF888343A
:10127000860308860408860518188B258C268D277A
:101280008B828C838DF0E52A120A91A3E52B120A3A
:101290009180058A82120EDE200B06200C03300D91
:1012A0005AE53424FCF88834860308860408860549
:1012B0000886061818188B258C268D278E287525EC
:1012C000977526027527808525358526368527372B
:1012D00074012535FEE43536FFAB378E258F268B1E
:1012E000278535828536838537F0120A18FBFA7018
:1012F00003020F728A82120EDE80CCE52C7003028C
:101300000F727B3D30132BE53414F88834E6FC3340
:1013100095E0FDFEFF8C258D268E278F2820125EFE
:10132000AC257D007E007F008C258D268E278F28A2
:10133000804C30141FE53424FCF888348604088679
:10134000050886060886071818188C258D268E270E
:101350008F28802AE53424FEF88834860408860520
:1013600018ED3395E0FEFF8C258D268E278F2820E3
:10137000120CAC25AD267E007F008E278F283015FD
:1013800043E52545264527452860397408B52C0CCA
:10139000758230C003120EDED00380287410B52C85
:1013A00023758230C003120EDED003300A0C758222
:1013B00078C003120EDED003800A758258C0031273
:1013C0000EDED003301225AC25AD26AE27E528FF72
:1013D00030E717C3E49CFCE49DFDE49EFEE49FFF20
:1013E0008C258D268E278F288002C212752F00D261
:1013F000168B00752900C000120F28D00020160D92
:10140000E529C4FCE6FD4CF61888038002A62905F0
:101410002FB216E52545264527452870D68803E5D1
:101420002D7003752D01200F1A200E17E52F04FCD7
:10143000C3952D500E758220C003120EDED0031509
:101440002D80E930120E75822DC003120EDED003FE
:10145000152D8024E52F602030100E75822BC003DF
:10146000120EDED003152D800F30110C758220C0B6
:1014700003120EDED003152D200E1EAC2D152DC32C
:10148000E52F9C5027300F047C3080027C208C821A
:10149000C003120EDED00380E2C3E52F952D500964
:1014A000E52DC3952FF52D8003752D008B00AB2FF7
:1014B000152FEB6022B21620160A08E6C4540FFB63
:1014C0008B2980078603740F5BF529852982C0006C
:1014D000120EF8D00080D7200E03020F72AB2D152C
:1014E0002DEB7003020F72758220120EDE80EE8AE1
:1014F00082120EDE020F72852A82852B8322AA8237
:10150000BA0A0810990280FB75990D10990280FBA8
:101510008A9922AA82AB83ACF07D007E008A828BFE
:10152000838CF0120A18FFA3AA82AB83EF60070D29
:10153000BD00EA0E80E78D828E832200000000004D
:00000001FF
