:10000000020026750D00750E00750F00751000C2F8
:1000100008E4F511F51222000000000000000000C5
:100020000000000204F975813D12065CE582600360
:10003000020092780079007A007B007C007D00EC61
:100040004D601C88828983E493A3A882A9838A8255
:100050008B83F0A3AA82AB831CBCFFE31D80E075F9
:1000600082007583007C987D00EC4D600AE4F0A36B
:100070001CBCFFF51D80F27582007583007C007D3D
:1000800000EC4D600AE4F0A31CBCFFF51D80F212E9
:10009000000312098A80FE417661696C61626C65B9
:1000A00020636F6D6D616E64733A0D0A002020004D
:1000B000202D20000A0045464D3820467265717596
:1000C000656E6379206D6561737572656D656E74BB
:1000D000207573696E672054696D65722F436F7563
:1000E0006E74657220302E0D0A0046696C653A20E8
:1000F000007372632F636D642E63000D0A436F6D8E
:1001000070696C65643A20004D61722020322032A3
:10011000303236002C200031333A33323A34350055
:100120000D0A0053797374656D205265736574749C
:10013000696E672E2E2E009701809C0180A301809E
:10014000A202B50180BA0180BC01804103CA0180CE
:10015000CF0180D101804903E00180E50180EB01FE
:10016000805103FA0180FF018006028059031402C6
:10017000801902801E028061032F02803402803CBD
:100180000280B10307556E6B6E6F776E20636F6DE3
:100190006D616E643A20007469626F002D2D686590
:1001A0006C700053686F7720616C6C20636F6D6DAD
:1001B000616E6473007469626F004B0053746F70FA
:1001C000205265616420432F4C007469626F0052B5
:1001D000005374617274205265616420432F4C0097
:1001E0007469626F002D6D6F6465004D6561737594
:1001F00072652043206F72204C007469626F002D7D
:10020000726F756E6400526F756E642066726167FE
:10021000696C65007469626F00696E666F0053688F
:100220006F772064657669636520696E666F007418
:1002300069626F002D2D7265736574005265736578
:1002400074207468652053797374656D0025750A90
:10025000001B5B324A004C6162350A46696C653AA4
:100260002025730A436F6D70696C65643A202573AD
:100270002C2025730A0A007372632F6C6162352E7D
:1002800063004D617220203220323032360031332B
:100290003A34373A3239003C4E4F20464C4F4154A5
:1002A0003E00C00885810890009775F0801205F522
:1002B0007A00900184E493FBC3EA9B400302033E6F
:1002C0009000AD75F080C0021205F5D002EA75F01D
:1002D0000BA4FBACF02437FDEC3401FE8D828E8341
:1002E000A3A3A3E493FDA3E493FEA3E493FF8D8271
:1002F0008E838FF0C002C003C0041205F59000B0D9
:1003000075F0801205F5D004D003EB2437FBEC34F4
:1003100001FC74062BF582E43CF583E493FBA3E433
:1003200093FCA3E493FD8B828C838DF01205F590F2
:1003300000B475F0801205F5D0020A0202B2D008AE
:1003400022C008858108D00822C008858108D0080D
:1003500022C008858108D00822C008858108D008FD
:1003600022C0088581089000B675F0801205F590CE
:1003700000EA75F0801205F59000F175F080120525
:10038000F59000FB75F0801205F590010875F0807E
:100390001205F590011475F0801205F5900117759E
:1003A000F0801205F590012075F0801205F5D00857
:1003B00022C00885810890012375F0801205F5752B
:1003C000EF10D0082285820985830A85F00B7D0015
:1003D000750C007F007800E82509F9E4350AFEAACB
:1003E0000B89828E838AF0120A0DFB603CBB200FC2
:1003F00089828E838AF0E4120A86750C008027E5D4
:100400000C7023BF0800501B8F030F8F05EB75F096
:1004100003A42400F582E43400F583E9F0A3EEF0B0
:10042000A3EAF0750C010880AEEFFD7001227A009E
:10043000900184E493FBC3EA9B40030204CE900046
:1004400000E0FBA3E0FCA3E0FEEA75F00BA4FF24B0
:1004500037F8E43401F988828983A3A3A3E493F5F0
:1004600019A3E493F51AA3E493F51B8B828C838E76
:10047000F0C002C005C007120A29E5828583F0D0CA
:1004800007D005D00245F07041EF2437FFE4340176
:10049000FB74092FF582E43BF583E493FBA3E4931B
:1004A000FCC003C0047400C0E07400C0E0E4C0E01D
:1004B00074BFC0E07404C0E0C003C0048D82221584
:1004C0008115811581D004D003220A0204309001E5
:1004D0008575F0801205F5900003E0FAA3E0FBA318
:1004E000E0FC8A828B838CF01205F59000B475F0E5
:1004F000800205F5D2ACD2AF22C020C0E0C0F0C06F
:1005000082C083C002C003C004C005C006C007C0CB
:1005100000C001C0D075D0001098028026E50F24DD
:1005200058F582E43400F583E599F0AA0F7B008A40
:10053000828B83A3751940E4F51A120AECAA82ABE8
:10054000838A0F1099028031E50DB50E028028E5EF
:100550000E2418F582E43400F583E0F599AA0E7BA9
:10056000008A828B83A3751940E4F51A120AECAA5B
:1005700082AB838A0E8002C208D0D0D001D000D0D6
:1005800007D006D005D004D003D002D083D082D0CB
:10059000F0D0E0D02032AA82AB0D7C008B828C831D
:1005A000A3751940E4F51AC002C003C004120AEC96
:1005B000AD82AE83D004D003D002AF0E7800EDB58B
:1005C0000706EEB5000280D0C2AFE50D2418F58213
:1005D000E43400F583EAF08B828C83A3751940E440
:1005E000F51A120AECAA82AB838A0D200804D208FD
:1005F000D299D2AF22AA82AB83ACF08A828B838C51
:10060000F0120A0DFD60188D820ABA00010BC002BB
:10061000C003C004120596D004D003D00280DC22AF
:10062000E510B50F03D38001C39209B3221206204F
:1006300050FBE5102458F582E43400F583E0FAAB72
:10064000107C008B828C83A3751940E4F51AC002DC
:10065000120AECAB82D0028B108A822275A7007539
:1006600097DE7597AD75FF8075EF0675A71075C19C
:100670002075A70075A90075A900E5A930E7FB75ED
:10068000A90375A903E5A930E7FB43A41075E101AF
:1006900075E20075E340759810758DE6858D8B5376
:1006A000890F438920D28ED2997582002275A700C6
:1006B000C2EF75B28075BC2075B91E75E80075DF94
:1006C0003F75B300D2EF22AA82438E407592B8756F
:1006D00093FF8592948593957591047B00C3EB9A63
:1006E000500BE59130E7FB53917F0B80F075910043
:1006F00022AA82AB837C007D00C3EC9AED9B502B39
:100700007E00BE0400501D7582FAC002C003C00402
:10071000C005C0061206C7D006D005D004D003D04D
:10072000020E80DE0CBC00D10D80CE22AA8285197B
:10073000F005F07401800225E0D5F0FBFB75A720E1
:10074000BA0002800ABA0102800FBA021E8014EBBE
:10075000F4FA52F1EB42D48012EBF4FA52F2EB428B
:10076000D58008EBF4FA52F3EB42CC75A700225384
:1007700089F0438901538EF8C28C228582BBC2ED79
:10078000D2EC30EDFD85BD8285BE832212077B123F
:100790000B22AA82AB83ACF0FDC002C003C004C030
:1007A000059053F875F0537440120B57AA82AB832F
:1007B000ACF0FDE58124FCF581E4C0E074FCC0E010
:1007C000747FC0E07446C0E08A828B838CF0ED12A7
:1007D0000C94AA82AB83ACF0FDE58124FCF5818A00
:1007E000828B838CF0ED2243F30C53A6F343CC0CA5
:1007F00043E34022858213751400751500751600B9
:100800007517007F00BF2000400302089C851382FB
:10081000C00712077B120B22A882A983AAF0FBC093
:1008200000C001C002C0039053F875F05374401229
:100830000B57AA82AB83ACF0FDE58124FCF581E483
:10084000C0E074FCC0E0747FC0E07446C0E08A82FF
:100850008B838CF0ED120C94AA82AB83ACF0FDE597
:100860008124FCF581C002C003C004C00585148248
:100870008515838516F0E517120C0585821485838E
:100880001585F016F517E58124FCF581D0070F904A
:100890000001C0071206F1D0070208058F82120B73
:1008A000FAAA82AB83ACF0FDC002C003C004C0054D
:1008B0008514828515838516F0E517120C94AA829B
:1008C000AB83ACF0FDE58124FCF5818A828B838CBF
:1008D000F0ED22538EF8C28C758C00758A0020A230
:1008E000FD30A2FDD28C20A2FDC28CAB8C7A00AC74
:1008F0008A7D00EC2AF582ED3BF583751903E4F55A
:100900001A120B2EAA82AB83C3EA9464EB940050B4
:1009100006AA11AB1280048A118B128A828B832261
:10092000538EFA438E02C28C758C00758A0020A209
:10093000FD30A2FDD28C20A3FD30A3FDC28C538ECE
:10094000F8AB8C7A00AC8A7D00EC2AF582ED3BF5A1
:1009500083751903E4F51A120B2EAA82E583CA25C2
:10096000E0CA33FBC002C003C002C003744DC0E044
:100970007402C0E07480C0E0120C73E58124FBF5C2
:1009800081D003D0028A828B83229001F41206F177
:100990007451C0E07402C0E07480C0E0120C7315A2
:1009A0008115811581748EC0E07402C0E07480C02E
:1009B000E07482C0E07402C0E07480C0E07477C06C
:1009C000E07402C0E07480C0E07456C0E07402C0FD
:1009D000E07480C0E0120C73E58124F4F581751990
:1009E0000675820112072C75190175820212072CF7
:1009F0001206AD12076F1207E775820E1207F41286
:100A000008D31209209001F41206F180EC20F714AB
:100A100030F6148883A88220F507E6A88375830042
:100A200022E280F7E49322E022AA82AB83ACF0AD0D
:100A300019AE1AAF1B8A828B838CF0120A0DF879DB
:100A400000C002C003C0048D828E838FF0120A0D95
:100A5000FA7B00E8C39AF8E99BF9881C891DD00449
:100A6000D003D002E84970178D828E838FF0120A6E
:100A70000D600C0ABA00010B0DBD00B90E80B685E1
:100A80001C82851D832220F71030F6118883A882EE
:100A900020F507F6A88375830022F280F7F022E59F
:100AA00019451A60467A01E51925E0F519E51A336A
:100AB0004012F51AE5829519E583951A40030A80DC
:100AC000E6C3E51A13F51AE51913F519C3E582957E
:100AD00019F5F0E583951A4005F58385F082C3E5A5
:100AE0001A13F51AE51913F519DAE122C2D5E583CF
:100AF00030E70DD2D5E4C39582F582E49583F58382
:100B0000E51A30E70BE4C39519F519E4951AF51ABF
:100B1000120A9F30D50BE4C39582F582E49583F5E4
:100B20008322E4AC83AB82FAF9748E020DBC7A1096
:100B3000E4FBFCE58225E0F582E58333F583EB33C6
:100B4000FBEC33FCEB9519F5F0EC951A4006FCAB89
:100B5000F0438201DADD22120E48BC0003020DE7E9
:100B6000EF60FA30D502B2D1E583B4FF03020DFD88
:100B7000E582B4FF03020DFD258340072482400B6C
:100B8000020DE72483145003020DFDF582EA8DF077
:100B9000A4A8F0EA8EF0A428F8E435F0F9EB8DF083
:100BA000A428E935F0F9E433CA8FF0A429F9EA352D
:100BB000F0FAEBF88EF0A429F9EA35F0FAE433FB09
:100BC000EC8DF0A429F9EA35F0FAE43BFBE88FF06C
:100BD000A42AFAEB35F0FBE433CCFD8EF0A42AFA1C
:100BE000EB35F0FBE43CFCED8FF0A42BFBEC35F097
:100BF000FC20E703120E15020DC6E4AC82FBFAF9E5
:100C00007486020DBC120E487900E583B58202801D
:100C10000D5003120E76E583C39582120E90E5D037
:100C2000C465D020E117EA2DFAEB3EFBEC3FFC5007
:100C3000097401120E90EC4480FC020DC6C3EA9DBB
:100C4000FAEB9EFBEC9FFC500FC3E499F9E49AFA8F
:100C5000E49BFBE49CFCB2D1120E15020DC60214FB
:100C6000F385823185833285F033851834900C5EAC
:100C7000020F5CC008858108E50824FBF534E5080F
:100C800024FBF88631088632088633900C5E120FFA
:100C90005CD00822120E4830D502B2D1BF0009BC88
:100CA0000003020E0A020DFDBC0003020DE7E583FE
:100CB000B4FF0BE582B4FF03020E0A020DE7E582E2
:100CC000B4FF03020DFDC395835007247F400B0240
:100CD0000DE72480145003020DFDC0E0E4CCCBCA24
:100CE000F98D198E1A8F1BEF54F0C4F51C7583060D
:100CF000851CF0EB84F582E9C4F9EAC4FAEBC4FB85
:100D0000EC540FC47803D6FC18EBD6FB18EAD6FADD
:100D10008582F0EDA4A8F0FD8582F0EEA428FEE423
:100D200035F0F88582F0EFA428FFE435F0F8E99D6E
:100D3000F9EA9EFAEB9FFBEC98FCAD19AE1AAF1BDB
:100D400030E7101582E92DF9EA3EFAEB3FFBE43C6F
:100D5000FC80EDC082D58398C3E933F9EA33FAEB1E
:100D600033FBEC33FCC3E99DEA9EEB9FEC9400B3AC
:100D7000E413F9D002D0E0C44AFAD003D0E0C44B67
:100D8000FBD004D0E0F5F0540FC44CFCD0821582A7
:100D900030F40FD3EC13FCEB13FBEA13FAE913F96D
:100DA0000582E930E70A74012AFAE43BFBE43CFCE3
:100DB000020DDEFCABF0AA83A982749EC2D1F5823B
:100DC000120E15020DC6B98003EA13B34010EA24CF
:100DD00001FAE43BFBE43CFC50047C800582BC004F
:100DE0000EBB000BBA0008E4F5F0F583F58222A2F1
:100DF000D1E582138CF092F78B838A8222E4F5830B
:100E0000F58275F080F4A2D11322E4F583F58275A2
:100E1000F0C0747F227804EC7011E58224F8500A47
:100E2000F582E4C9CACBFCD8EF22EC7820058220F9
:100E3000E713D5820122C3E933F9EA33FAEB33FB36
:100E4000EC33FCD8EA158222AA82AB83A2F7339254
:100E5000D16002D2F7F582ACF0E58124F9F8E6FD25
:100E600008E6FE0886F008E6A2F73392D56002D2C3
:100E7000F7F583AFF022E582C583F582A2D133A2D4
:100E8000D592D11392D5ECCFFCEBCEFBEACDFA2272
:100E90006040F82582500274FFF582E824F8501E65
:100EA000CCCBCAF9E4CC24F85014CBCAF9E4CB2457
:100EB000F8500BCAF9E4CA24F85003790022240838
:100EC0006010F8C3EC13FCEB13FBEA13FAE913F917
:100ED000D8F122AA8274E4C0E0740EC0E0C023C03E
:100EE000248A8222052AE4B52A02052B22AA8274CA
:100EF000302AFA24C6500A74072AFA300A03430239
:100F0000208A82020ED3E582FAC4540FF582C00211
:100F1000120EEDD002740F5AF582020EEDAA25AB27
:100F200026AC27AD28AE29753020EE2EFEED2354D9
:100F300001FF4206EA2AFAEB33FBEC33FCED33FD0A
:100F4000C3EE952C4008EEC3952CFE430201D5302C
:100F5000D98A258B268C278D288E29228582238568
:100F60008324E4F52AF52BAA31AB32AC338A828B89
:100F7000838CF0120A0DFD74012AF531E43BF53241
:100F80008C33EDFA70030214ECBA250280030214CC
:100F9000E4C20EC20FC210C211C212C213C214C2E6
:100FA00015C20BC20CC20D752C00752D00752EFFDD
:100FB000AB31AC32AD338B828C838DF0120A0DFADB
:100FC000A3AB82AC838B318C328D33BA25078A82F6
:100FD000120ED380928A06BE3000402E8A06EE247E
:100FE000C6402774FFB52E13E52D75F00AA4FEEA5E
:100FF00024D02EF52D70BFD20F80BBE52E75F00AE0
:10100000A4FEEA24D02EF52E80ACBA2E0A74FFB5C9
:101010002EA4752E00809F8A06BE6100400E8A06AF
:10102000EE248540075302DFD20A8002C20ABA20AA
:10103000028075BA23030210B7BA2A030210BCBAA1
:101040002B02805FBA2D028055BA4202805FBA43FC
:1010500003021101BA440302123CBA4503021256BC
:10106000BA4603021252BA470302125ABA4903029D
:10107000123CBA4C02803BBA4E0302125EBA4F03D6
:10108000021243BA50030211D5BA5303021125BA12
:101090005503021248BA580302124D021288D20EAA
:1010A000020FB6D210020FB6D211020FB6D213023F
:1010B0000FB6D214020FB6D215020FB674FFB52EBA
:1010C0002030130BE53414F88834862D020FB6E572
:1010D0003424FEF888348606088607188E2D020F01
:1010E000B630130BE53414F88834862E020FB6E5BB
:1010F0003424FEF888348606088607188E2E020FE0
:10110000B630130AE53414F888348602800FE534CB
:1011100024FEF888348603088604188B028A82121B
:101120000ED302128DE53424FDF888348603088638
:101130000408860518188B258C268D278B828C83B6
:101140008DF0121508AB82AC838B2F74FFB52E0384
:10115000852F2E200E1DC3E52F952D5016E52DC38E
:10116000952FF52DAB2D152DEB6008758220120EF5
:10117000D380F18525828526838527F0120A0DFB11
:10118000FA6029AB2E152EC3E464808BF063F080E7
:1011900095F050188A82120ED3AB25AC26AD270BE2
:1011A000BB00010C8B258C268D2780C7200E0302E7
:1011B000128DC3E52F952D400302128DE52DC395A9
:1011C0002FF52DAB2D152DEB700302128D7582209E
:1011D000120ED380EEE53424FDF8883486030886A9
:1011E0000408860518188B258C268D27E527FB30EB
:1011F000E7047A438013EB546060047A50800AEB72
:1012000030E6047A4980027A588A82C002120ED3EC
:1012100075823A120ED3758230120ED3758278120F
:101220000ED3D002BA4902800BBA5002800685263E
:1012300082120F06852582120F068051D212752C5C
:101240000A804A752C088045752C0A8040752C1040
:10125000803BD20B8037D20C8033D20D802FE53407
:1012600024FDF88834860308860408860518188B40
:10127000258C268D278B828C838DF0E52A120A8699
:10128000A3E52B120A8680058A82120ED3200B0654
:10129000200C03300D5AE53424FCF888348603080A
:1012A00086040886050886061818188B258C268D56
:1012B000278E287525977526027527808525358503
:1012C000263685273774012535FEE43536FFAB37E2
:1012D0008E258F268B278535828536838537F012BC
:1012E0000A0DFBFA7003020F678A82120ED380CCBC
:1012F000E52C7003020F677B3D30132BE53414F8A7
:101300008834E6FC3395E0FDFEFF8C258D268E2784
:101310008F2820125EAC257D007E007F008C258DFD
:10132000268E278F28804C30141FE53424FCF88843
:101330003486040886050886060886071818188C5F
:10134000258D268E278F28802AE53424FEF88834C0
:10135000860408860518ED3395E0FEFF8C258D2662
:101360008E278F2820120CAC25AD267E007F008EA4
:10137000278F28301543E525452645274528603920
:101380007408B52C0C758230C003120ED3D00380C4
:10139000287410B52C23758230C003120ED3D003ED
:1013A000300A0C758278C003120ED3D003800A7500
:1013B0008258C003120ED3D003301225AC25AD26BF
:1013C000AE27E528FF30E717C3E49CFCE49DFDE46D
:1013D0009EFEE49FFF8C258D268E278F288002C2DB
:1013E00012752F00D2168B00752900C000120F1D38
:1013F000D00020160DE529C4FCE6FD4CF618880344
:101400008002A629052FB216E52545264527452841
:1014100070D68803E52D7003752D01200F1A200E5C
:1014200017E52F04FCC3952D500E758220C00312C2
:101430000ED3D003152D80E930120E75822DC00316
:10144000120ED3D003152D8024E52F602030100E0E
:1014500075822BC003120ED3D003152D800F3011CF
:101460000C758220C003120ED3D003152D200E1E42
:10147000AC2D152DC3E52F9C5027300F047C3080F8
:10148000027C208C82C003120ED3D00380E2C3E51D
:101490002F952D5009E52DC3952FF52D8003752D22
:1014A000008B00AB2F152FEB6022B21620160A0816
:1014B000E6C4540FFB8B2980078603740F5BF52964
:1014C000852982C000120EEDD00080D7200E0302C5
:1014D0000F67AB2D152DEB7003020F67758220127D
:1014E0000ED380EE8A82120ED3020F67852A828580
:1014F0002B8322AA82BA0A0810990280FB75990DE3
:1015000010990280FB8A9922AA82AB83ACF07D00FD
:101510007E008A828B838CF0120A0DFFA3AA82AB15
:1015200083EF60070DBD00EA0E80E78D828E832277
:00000001FF
